:103EF100410208004402090000404048000001035B
:103F0100070F1F3F7FFF49041F000103070F1F3FDA
:103F11007FFF490216FFFEFCF8F0E0C08000490275
:0A3F21000DFF7F3F1F0F0703010093
:066CBD00900208EFF02236
:10678200C3EF64809480404FD3EF648094C050473D
:10679200C3EB64809480403FD3EB648094C0503755
:1067A200C3ED64809480402F9005D0E0FED36480D6
:1067B20094C05023C3ED64809480401BD3EE648068
:1067C20094C05013900209EFF0A3EDF0A3EBF09008
:0867D20005D0E090020CF0225A
:106B4200900209E012380090020AE0900001123827
:106B52001290020BE090000212381290020CE090A8
:056B62000003023812DF
:0B2BD1009005DAEBF0A3EAF0A3E9F0B6
:102BDC009005E3E0FF9005E2E08FF0A49005E5F0AE
:102BEC00C3ED64809480400BED75F008123743AF51
:102BFC00F0800DED75F008123743AFF0EF2408FFAD
:102C0C009005E6EFF0C3ED64809480400AED75F01A
:102C1C0008123743FF800BAF05EF75F008123743EE
:102C2C0014FF9005E7EFF0E49005E4F09005E5E083
:102C3C00FF9005E4E0FEC3EF6480F8EE64809840FA
:102C4C0003022EC99005E2E0FFEE8FF0123743AE7F
:102C5C00F09005E9EEF0FD3395E0FC9005DEE0FB2D
:102C6C003395E0FAEB2DFDEA3CFCC3648094805074
:102C7C0003022EC0ED9440EC648094804003022E3D
:102C8C00C09005E4E0FE8FF0123743FF9005E8F0AA
:102C9C003395E0FE9005E7E0FD3395E0FCED2FFF6A
:102CAC00EC3EFEC3648094805003022DA0EF940888
:102CBC00EE648094804003022DA09005E9E0FF3380
:102CCC0095E0FE9005DEE0FD3395E0FCED2FFFEC8A
:102CDC003EFEEF7803C333CE33CED8F9FF9005DA3E
:102CEC00E0FBA3E0FAA3E02FF9EA3EFA9005E8E056
:102CFC00FF3395E0FE9005E7E0FD3395E0FCED2F0A
:102D0C00FFEC3EFEE92FF9EA3EFA123765F4FF902C
:102D1C0005DFE0FBA3E0FAA3E0F99005E4E0FD3366
:102D2C0095E08D82F58312377EFE9005E6E0FDEE90
:102D3C00A805088002C333D8FC4FF4FD9005E9E0E8
:102D4C00FF3395E0FE9005DEE0FB3395E0FAEB2FC8
:102D5C00FFEA3EFEEF7803C333CE33CED8F9FF90B3
:102D6C0005DAE0FBA3E0FAA3E02FF9EA3EFA9005BE
:102D7C00E8E0FF3395E0FE9005E7E0F5823395E05F
:102D8C00F583E5822FFFE5833EFEE92FF9EA3EFA53
:102D9C00ED1238009005E8E0FF3395E0FE9005E772
:102DAC00E0FD3395E0FCED2FFFEC3ECF2401CF345A
:102DBC0000FEC3648094805003022EC0EF9408EE92
:102DCC00648094804003022EC09005E9E0FF3395A7
:102DDC00E0FE9005DEE0FD3395E0FCED2FFFEC3ED0
:102DEC00FEEF7803C333CE33CED8F9FF9005DAE08B
:102DFC00FBA3E0FAA3E02FF9EA3EFA9005E8E0FF26
:102E0C003395E0FE9005E7E0FD3395E0FCED2FFFF8
:102E1C00EC3ECF2401CF3400FEE92FF9EA3EFA1242
:102E2C003765F4FF9005DFE0FBA3E0FAA3E0F9902F
:102E3C0005E4E0FD3395E08D82F58312377EFE903C
:102E4C0005E6E0FDC374089DFDEEA805088002C3ED
:102E5C0013D8FC4FF4FD9005E9E0FF3395E0FE90AC
:102E6C0005DEE0FB3395E0FAEB2FFFEA3EFEEF7850
:102E7C0003C333CE33CED8F9FF9005DAE0FBA3E0E1
:102E8C00FAA3E02FF9EA3EFA9005E8E0FF3395E06B
:102E9C00FE9005E7E0F5823395E0F583E5822FFFA0
:102EAC00E5833ECF2401CF3400FEE92FF9EA3EFA48
:0D2EBC00ED1238009005E4E004F0022C381F
:012EC90022E6
:102275009005CDE0FDA3E09005DEF09005CFE0F9F7
:10228500A3E0FAA3E09005DFC9F0A3EAF0A3E9F023
:102295009005D2E09005E2F09005D3E09005E3F0DB
:0622A5007B017A02791FA3
:0B22AB009005DAEBF0A3EAF0A3E9F0E5
:1022B6009005E3E0FF9005E2E08FF0A49005E5F0DD
:1022C600C3ED64809480400BED75F008123743AF80
:1022D600F0800DED75F008123743AFF0EF2408FFDC
:1022E6009005E6EFF0C3ED64809480400BED780333
:1022F600A2E713D8FBFF800CAF05EF7803A2E71324
:10230600D8FB14FF9005E7EFF0E49005E4F09005A4
:10231600E5E0FF9005E4E0FEC3EF6480F8EE64803C
:102326009840030225A59005E2E0FFEE8FF01237F4
:1023360043AEF09005E9EEF0FD3395E0FC9005DE46
:10234600E0FB3395E0FAEB2DFDEA3CFCC364809498
:1023560080500302259CED9440EC648094804003F9
:1023660002259C9005E4E0FE8FF0123743FF9005AE
:10237600E8F03395E0FE9005E7E0FD3395E0FCEDEF
:102386002FFFEC3EFEC364809480500302247AEF54
:102396009408EE64809480400302247A9005E9E074
:1023A600FF3395E0FE9005DEE0FD3395E0FCED2F72
:1023B600FFEC3EFEEF7803C333CE33CED8F9FF9061
:1023C60005DAE0FBA3E0FAA3E02FF9EA3EFA90056E
:1023D600E8E0FF3395E0FE9005E7E0FD3395E0FC8D
:1023E600ED2FFFEC3EFEE92FF9EA3EFA123765FFC4
:1023F6009005DFE0FBA3E0FAA3E0F99005E4E0FD39
:102406003395E08D82F58312377EFE9005E6E0FD7A
:10241600EEA805088002C333D8FC4FFD9005E9E01D
:10242600FF3395E0FE9005DEE0FB3395E0FAEB2FF7
:10243600FFEA3EFEEF7803C333CE33CED8F9FF90E2
:1024460005DAE0FBA3E0FAA3E02FF9EA3EFA9005ED
:10245600E8E0FF3395E0FE9005E7E0F5823395E08E
:10246600F583E5822FFFE5833EFEE92FF9EA3EFA82
:10247600ED1238009005E8E0FF3395E0FE9005E7A1
:10248600E0FD3395E0FCED2FFFEC3ECF2401CF3489
:1024960000FEC3EF94FFEE6480947F500302259CF8
:1024A600EF9408EE64809480400302259C9005E931
:1024B600E0FF3395E0FE9005DEE0FD3395E0FCEDB0
:1024C6002FFFEC3EFEEF7803C333CE33CED8F9FFB1
:1024D6009005DAE0FBA3E0FAA3E02FF9EA3EFA90D2
:1024E60005E8E0FF3395E0FE9005E7E0FD3395E073
:1024F600FCED2FFFEC3ECF2401CF3400FEE92FF98F
:10250600EA3EFA123765FF9005DFE0FBA3E0FAA387
:10251600E0F99005E4E0FD3395E08D82F58312370E
:102526007EFE9005E6E0FDC374089DFDEEA8050855
:102536008002C313D8FC4FFD9005E9E0FF3395E018
:10254600FE9005DEE0FB3395E0FAEB2FFFEA3EFE58
:10255600EF7803C333CE33CED8F9FF9005DAE0FB2C
:10256600A3E0FAA3E02FF9EA3EFA9005E8E0FF338C
:1025760095E0FE9005E7E0F5823395E0F583E58288
:102586002FFFE5833ECF2401CF3400FEE92FF9EA81
:0F2596003EFAED1238009005E4E004F002231441
:0125A5002213
:0B2ECA009005DAEBF0A3EAF0A3E9F0BA
:102ED5009005E3E0FF9005E2E08FF0A49005E5F0B2
:102EE500C3ED64809480400BED75F008123743AF55
:102EF500F0800DED75F008123743AFF0EF2408FFB1
:102F05009005E6EFF0C3ED64809480400AED75F01E
:102F150008123743FF800BAF05EF75F008123743F2
:102F250014FF9005E7EFF0E49005E4F09005E5E087
:102F3500FF9005E4E0FEC3EF6480F8EE64809840FE
:102F4500030231C29005E2E0FFEE8FF0123743AE87
:102F5500F09005E9EEF0FD3395E0FC9005DEE0FB31
:102F65003395E0FAEB2DFDEA3CFCC3648094805078
:102F7500030231B9ED9440EC648094804003023142
:102F8500B99005E4E0FE8FF0123743FF9005E8F0B5
:102F95003395E0FE9005E7E0FD3395E0FCED2FFF6E
:102FA500EC3EFEC3648094805003023099EF940890
:102FB500EE6480948040030230999005E9E0FF3388
:102FC50095E0FE9005DEE0FD3395E0FCED2FFFEC8E
:102FD5003EFEEF7803C333CE33CED8F9FF9005DA42
:102FE500E0FBA3E0FAA3E02FF9EA3EFA9005E8E05A
:102FF500FF3395E0FE9005E7E0FD3395E0FCED2F0E
:10300500FFEC3EFEE92FF9EA3EFA123765F4FF9030
:1030150005DFE0FBA3E0FAA3E0F99005E4E0FD336A
:1030250095E08D82F58312377EFE9005E6E0FDEE94
:10303500A805088002C333D8FC6FF4FD9005E9E0CC
:10304500FF3395E0FE9005DEE0FB3395E0FAEB2FCC
:10305500FFEA3EFEEF7803C333CE33CED8F9FF90B7
:1030650005DAE0FBA3E0FAA3E02FF9EA3EFA9005C2
:10307500E8E0FF3395E0FE9005E7E0F5823395E063
:10308500F583E5822FFFE5833EFEE92FF9EA3EFA57
:10309500ED1238009005E8E0FF3395E0FE9005E776
:1030A500E0FD3395E0FCED2FFFEC3ECF2401CF345E
:1030B50000FEC36480948050030231B9EF9408EE9A
:1030C5006480948040030231B99005E9E0FF3395AF
:1030D500E0FE9005DEE0FD3395E0FCED2FFFEC3ED4
:1030E500FEEF7803C333CE33CED8F9FF9005DAE08F
:1030F500FBA3E0FAA3E02FF9EA3EFA9005E8E0FF2A
:103105003395E0FE9005E7E0FD3395E0FCED2FFFFC
:10311500EC3ECF2401CF3400FEE92FF9EA3EFA1246
:103125003765F4FF9005DFE0FBA3E0FAA3E0F99033
:1031350005E4E0FD3395E08D82F58312377EFE9040
:1031450005E6E0FDC374089DFDEEA805088002C3F1
:1031550013D8FC6FF4FD9005E9E0FF3395E0FE9090
:1031650005DEE0FB3395E0FAEB2FFFEA3EFEEF7854
:1031750003C333CE33CED8F9FF9005DAE0FBA3E0E5
:10318500FAA3E02FF9EA3EFA9005E8E0FF3395E06F
:10319500FE9005E7E0F5823395E0F583E5822FFFA4
:1031A500E5833ECF2401CF3400FEE92FF9EA3EFA4C
:0D31B500ED1238009005E4E004F0022F3127
:0131C20022EA
:104162009005CDEFF0A3EDF0A3EBF0A3EAF0A3E905
:01417200F05C
:10417300900208E07006122275024252900208E093
:104183006401703C9005CDE0FDA3E09005DEF09066
:1041930005CFE0F9A3E0FAA3E09005DFC9F0A3EAB5
:1041A300F0A3E9F09005D2E09005E2F09005D3E0AA
:1041B3009005E3F07B017A0079081222AB02429268
:1041C300900208E06402703C1222759005CDE0FD78
:1041D300A3E09005DEF09005CFE0F9A3E0FAA3E0B9
:1041E3009005DFC9F0A3EAF0A3E9F09005D2E090CF
:1041F30005E2F09005D3E09005E3F07B017A0079C6
:10420300080222AB900208E06403703B9005CDE006
:10421300FDA3E09005DEF09005CFE0F9A3E0FAA35B
:10422300E09005DFC9F0A3EAF0A3E9F09005D2E03E
:104233009005E2F09005D3E09005E3F07B017A026C
:10424300791F122BD18008900208E0640470389023
:1042530005CDE0FDA3E09005DEF09005CFE0F9A3E6
:10426300E0FAA3E09005DFC9F0A3EAF0A3E9F09038
:1042730005D2E09005E2F09005D3E09005E3F07BF2
:10428300017A007908803E900208E0640570399055
:1042930005CDE0FDA3E09005DEF09005CFE0F9A3A6
:1042A300E0FAA3E09005DFC9F0A3EAF0A3E9F090F8
:1042B30005D2E09005E2F09005D3E09005E3F07BB2
:1042C300017A02791F022BD1900208E0640670394B
:1042D3009005CDE0FDA3E09005DEF09005CFE0F979
:1042E300A3E0FAA3E09005DFC9F0A3EAF0A3E9F0A5
:1042F3009005D2E09005E2F09005D3E09005E3F05D
:104303007B017A0079080243C3900208E0640770D6
:10431300389005CDE0FDA3E09005DEF09005CFE0F9
:10432300F9A3E0FAA3E09005DFC9F0A3EAF0A3E95B
:10433300F09005D2E09005E2F09005D3E09005E31C
:10434300F07B017A02791F8077900208E06408709D
:10435300729005CDE0FDA3E09005DEF09005CFE07F
:10436300F9A3E0FAA3E09005DFC9F0A3EAF0A3E91B
:10437300F09005D2E09005E2F09005D3E09005E3DC
:10438300F07B017A007908122ECA9005CDE0FDA3D7
:10439300E09005DEF09005CFE0F9A3E0FAA3E0900A
:1043A30005DFC9F0A3EAF0A3E9F09005D2E0900598
:1043B300E2F09005D3E09005E3F07B017A02791FE8
:0343C300122ECAED
:0143C60022D4
:0B1502009005C4EBF0A3EAF0A3E9F0B1
:10150D009005CDE0FF9005CCE08FF0A49005CFF0D5
:10151D00C3ED64809480ED54074003FF80032408DD
:10152D00FF9005D0EFF0C3ED64809480400BED7813
:10153D0003A2E713D8FBFF800CAF05EF7803A2E7FA
:10154D0013D8FB14FF9005D1EFF0E49005CEF09089
:10155D0005CFE0FF9005CEE0FEC39F4003021E873E
:10156D009005CCE0FFEE8FF084AFF09005D3EFF057
:10157D007E009005C8E0FD3395E0FCED2FFFEE3CBD
:10158D00FE90020AE0FD3395E0FCC3EF9DEC648014
:10159D00F8EE6480985003021E7E90020CE0FD333D
:1015AD0095E0FCC3EF9DEC6480F8EE6480984003F9
:1015BD00021E7E9005CCE0FF9005CEE08FF084906A
:1015CD0005D2F0FD900209E0FF3395E0FEEF240710
:1015DD00FFE43EFEEF7803CEA2E713CE13D8F8FF5B
:1015ED009005D1E02DFDE433FCC3ED9FEE6480F852
:1015FD00EC64809850030216BD90020BE0FF780357
:10160D00A2E713D8FBFF3395E0FEC3ED9FEE648098
:10161D00F8EC64809840030216BD9005D3E0FF7E80
:10162D00009005C8E0FD3395E0FCED2FFFEE3CFE8C
:10163D00EF7803C333CE33CED8F9FF9005C4E0FB6A
:10164D00A3E0FAA3E02FF9EA3EFA9005D2E0FF906D
:10165D0005D1E02FFFE433FEE92FF9EA3EFA123708
:10166D0065F4FF9005C9E0FBA3E0FAA3E0F990054E
:10167D00CEE0F58275830012377EFE9005D0E0FD39
:10168D00EEA805088002C333D8FC4FF4FD9005D3B6
:10169D00E0FF7E009005C8E0FB3395E0FAEB2FFFED
:1016AD00EE3AFEEF7803C333CE33CED8F90219D814
:1016BD00900209E0FF3395E0FEEF2407FFE43EFEC4
:1016CD00EF7803CEA2E713CE13D8F8FF9005D2E042
:1016DD00FD9005D1E02DFDE433FCC3ED9FEE64805C
:1016ED00F8EC64809850030217D190020BE0FF33A1
:1016FD0095E0FEEF2407FFE43EFEEF7803CEA2E770
:10170D0013CE13D8F8FFC3ED9FEE6480F8EC648020
:10171D009840030217D19005D3E0FF7E009005C8D5
:10172D00E0FD3395E0FCED2FFFEE3CFEEF7803C3BB
:10173D0033CE33CED8F9FF9005C4E0FBA3E0FAA376
:10174D00E02FF9EA3EFA9005D2E0FF9005D1E02FA7
:10175D00FFE433FEE92FF9EA3EFA123765F4FF9004
:10176D0005C9E0FBA3E0FAA3E0F99005CEE0F58210
:10177D0075830012377EFE9005D0E0FDEEA80508BA
:10178D008002C333D8FCFE90020BE05407FD339565
:10179D00E0FC741F2DF58274043CF583E05E4FF47C
:1017AD00FD9005D3E0FF7E009005C8E0FB3395E08A
:1017BD00FAEB2FFFEE3AFEEF7803C333CE33CED8DC
:1017CD00F90219D89005D2E0FF9005D1E02FFFE482
:1017DD0033FE900209E0FD7803A2E713D8FBFD3339
:1017ED0095E0FCC3EF9DEC6480F8EE6480985003A7
:1017FD000218CF90020BE0FD7803A2E713D8FBFD92
:10180D003395E0FCC3EF9DEC6480F8EE6480984066
:10181D00030218CF9005D3E0FF7E009005C8E0FDD0
:10182D003395E0FCED2FFFEE3CFEEF7803C333CE96
:10183D0033CED8F9FF9005C4E0FBA3E0FAA3E02F67
:10184D00F9EA3EFA9005D2E0FF9005D1E02FFFE4D2
:10185D0033FEE92FF9EA3EFA123765F4FF9005C918
:10186D00E0FBA3E0FAA3E0F99005CEE0F5827583E5
:10187D000012377EFE9005D0E0FDEEA8050880022F
:10188D00C333D8FCFE900209E05407FD3395E0FC0C
:10189D0074162DF58274023CF583E05E4FF4FD90D5
:1018AD0005D3E0FF7E009005C8E0FB3395E0FAEB31
:1018BD002FFFEE3AFEEF7803C333CE33CED8F902C5
:1018CD0019D89005D2E0FF9005D1E02FFFE433FE4B
:1018DD00900209E0FD7803A2E713D8FBFD3395E0F4
:1018ED00FCEF6D7002EE6C6003021A0090020BE0CB
:1018FD00FD7808A2E713D8FBFD3395E0FCEF6D7082
:10190D0002EE6C6003021A009005D3E0FF7E00909A
:10191D0005C8E0FD3395E0FCED2FFFEE3CFEEF78C2
:10192D0003C333CE33CED8F9FF9005C4E0FBA3E05B
:10193D00FAA3E02FF9EA3EFA9005D2E0FF9005D127
:10194D00E02FFFE433FEE92FF9EA3EFA123765F492
:10195D00FF9005C9E0FBA3E0FAA3E0F99005CEE006
:10196D00F58275830012377EFE9005D0E0FDEEA85E
:10197D0005088002C333D8FCFE900209E05407FD30
:10198D003395E0FC74162DF58274023CF583E05E10
:10199D00FE90020BE05407FD3395E0FC741F2DF50E
:1019AD008274043CF583E05E4FF4FD9005D3E0FFB7
:1019BD007E009005C8E0FB3395E0FAEB2FFFEE3A81
:1019CD00FEEF7803C333CE33CED8F9FF9005C4E0D4
:1019DD00FBA3E0FAA3E02FF9EA3EFA9005D2E0FF6F
:1019ED009005D1E02FFFE433FEE92FF9EA3EFAED41
:1019FD001238009005D2E0FF9005D1E02FFFE433BF
:101A0D00CF2401FDE43FFC900209E0FF3395E0FE99
:101A1D00EF2407FFE43EFEEF7803CEA2E713CE13CB
:101A2D00D8F8FFC3ED9FEE6480F8EC648098500306
:101A3D00021B0290020BE0FF7803A2E713D8FBFF15
:101A4D003395E0FEC3ED9FEE6480F8EC6480984022
:101A5D0003021B029005D3E0FF7E009005C8E0FD58
:101A6D003395E0FCED2FFFEE3CFEEF7803C333CE54
:101A7D0033CED8F9FF9005C4E0FBA3E0FAA3E02F25
:101A8D00F9EA3EFA9005D2E0FF9005D1E02FFFE490
:101A9D0033CF2401CF3400FEE92FF9EA3EFA123795
:101AAD0065F4FF9005C9E0FBA3E0FAA3E0F990050A
:101ABD00CEE0F58275830012377EFE9005D0E0FDF5
:101ACD00C374089DFDEEA805088002C313D8FC4F12
:101ADD00F4FD9005D3E0FF7E009005C8E0FB339543
:101AED00E0FAEB2FFFEE3AFEEF7803C333CE33CEA1
:101AFD00D8F9021E509005D2E0FF9005D1E02FFFDE
:101B0D00E433CF2401FDE43FFC900209E0FF33955F
:101B1D00E0FEEF2407FFE43EFEEF7803CEA2E713CD
:101B2D00CE13D8F8FFC3ED9FEE6480F8EC64809877
:101B3D005003021C2790020BE0FF3395E0FEEF24CB
:101B4D0007FFE43EFEEF7803CEA2E713CE13D8F8DD
:101B5D00FFC3ED9FEE6480F8EC6480984003021C97
:101B6D00279005D3E0FF7E009005C8E0FD3395E09A
:101B7D00FCED2FFFEE3CFEEF7803C333CE33CED812
:101B8D00F9FF9005C4E0FBA3E0FAA3E02FF9EA3ECC
:101B9D00FA9005D2E0FF9005D1E02FFFE433CF247A
:101BAD0001CF3400FEE92FF9EA3EFA123765F4FF52
:101BBD009005C9E0FBA3E0FAA3E0F99005CEE0F5AE
:101BCD008275830012377EFE9005D0E0FDC3740848
:101BDD009DFDEEA805088002C313D8FCFE90020BF4
:101BED00E05407FD3395E0FC741F2DF58274043C21
:101BFD00F583E05E4FF4FD9005D3E0FF7E00900588
:101C0D00C8E0FB3395E0FAEB2FFFEE3AFEEF7803D9
:101C1D00C333CE33CED8F9021E509005D2E0FF90DB
:101C2D0005D1E02FFFE433CF2401CF3400FE900225
:101C3D0009E0FD7803A2E713D8FBFD3395E0FCC363
:101C4D00EF9DEC6480F8EE6480985003021D369091
:101C5D00020BE0FD7803A2E713D8FBFD3395E0FC02
:101C6D00C3EF9DEC6480F8EE6480984003021D364E
:101C7D009005D3E0FF7E009005C8E0FD3395E0FCB4
:101C8D00ED2FFFEE3CFEEF7803C333CE33CED8F904
:101C9D00FF9005C4E0FBA3E0FAA3E02FF9EA3EFABA
:101CAD009005D2E0FF9005D1E02FFFE433CF240162
:101CBD00CF3400FEE92FF9EA3EFA123765F4FF90B2
:101CCD0005C9E0FBA3E0FAA3E0F99005CEE0F582AB
:101CDD0075830012377EFE9005D0E0FDC374089D1C
:101CED00FDEEA805088002C313D8FCFE900209E0A2
:101CFD005407FD3395E0FC74162DF58274023CF506
:101D0D0083E05E4FF4FD9005D3E0FF7E009005C8A3
:101D1D00E0FB3395E0FAEB2FFFEE3AFEEF7803C3CD
:101D2D0033CE33CED8F9021E509005D2E0FF900588
:101D3D00D1E02FFFE433CF2401CF3400FE90020910
:101D4D00E0FD7803A2E713D8FBFD3395E0FCEF6DC2
:101D5D007002EE6C6003021E7E90020BE0FD7803B4
:101D6D00A2E713D8FBFD3395E0FCEF6D7002EE6C2E
:101D7D006003021E7E9005D3E0FF7E009005C8E053
:101D8D00FD3395E0FCED2FFFEE3CFEEF7803C33302
:101D9D00CE33CED8F9FF9005C4E0FBA3E0FAA3E063
:101DAD002FF9EA3EFA9005D2E0FF9005D1E02FFF22
:101DBD00E433CF2401CF3400FEE92FF9EA3EFA12C5
:101DCD003765F4FF9005C9E0FBA3E0FAA3E0F990B5
:101DDD0005CEE0F58275830012377EFE9005D0E0CA
:101DED00FDC374089DFDEEA805088002C313D8FC41
:101DFD00FE900209E05407FD3395E0FC74162DF5B5
:101E0D008274023CF583E05EFE90020BE05407FD08
:101E1D003395E0FC741F2DF58274043CF583E05E70
:101E2D004FF4FD9005D3E0FF7E009005C8E0FB3335
:101E3D0095E0FAEB2FFFEE3AFEEF7803C333CE3386
:101E4D00CED8F9FF9005C4E0FBA3E0FAA3E02FF98B
:101E5D00EA3EFA9005D2E0FF9005D1E02FFFE43382
:101E6D00CF2401CF3400FEE92FF9EA3EFAED123806
:0A1E7D00009005CEE004F002155CB1
:011E87002238
:100003009005B7E0FDA3E09005C8F09005B9E0F9CD
:10001300A3E0FAA3E09005C9C9F0A3EAF0A3E9F0CD
:100023009005BCE09005CCF09005BDE09005CDF0C7
:060033007B017A02791F37
:0B0039009005C4EBF0A3EAF0A3E9F08F
:100044009005CDE0FF9005CCE08FF0A49005CFF0B3
:10005400C3ED64809480ED54074003FF80032408BB
:10006400FF9005D0EFF0C3ED64809480400AED75F5
:10007400F008123743FF800BAF05EF75F008123715
:100084004314FF9005D1EFF0E49005CEF09005CF36
:10009400E0FF9005CEE0FEC3EF6480F8EE64809844
:1000A4004003020AAF9005CCE0FFEE8FF012374315
:1000B400AFF09005D3EFF03395E0FE9005C8E0FD76
:1000C4003395E0FCED2FFFEC3EFE90020AE0FD3399
:1000D40095E0FCC3EF9DEC6480F8EE6480985003D7
:1000E400020AA690020CE0FD3395E0FCC3EF9DEC00
:1000F4006480F8EE6480984003020AA69005CCE080
:10010400FF9005CEE0FE8FF01237439005D2F0FD4C
:10011400900209E0FF3395E0FEEF2407FFE43EFE82
:10012400EF7803CEA2E713CE13D8F8FFED3395E0B2
:10013400FC9005D1E0FB3395E0FAEB2DFDEA3CFCA5
:10014400C3ED9FEE6480F8EC648098500302021AB9
:1001540090020BE0FF7803A2E713D8FBFF3395E08E
:10016400FEC3ED9FEE6480F8EC64809840030202C5
:100174001A9005D3E0FF3395E0FE9005C8E0FD3307
:1001840095E0FCED2FFFEC3EFEEF7803C333CE3356
:10019400CED8F9FF9005C4E0FBA3E0FAA3E02FF961
:1001A400EA3EFA9005D2E0FF3395E0FE9005D1E0F7
:1001B400FD3395E0FCED2FFFEC3EFEE92FF9EA3E1E
:1001C400FA123765FF9005C9E0FBA3E0FAA3E0F952
:1001D4009005CEE0FD3395E08D82F58312377EFEE7
:1001E4009005D0E0FDEEA805088002C333D8FC4F8B
:1001F400FD9005D3E0FF3395E0FE9005C8E0FB33A6
:1002040095E0FAEB2FFFEA3EFEEF7803C333CE33DB
:10021400CED8F902058C900209E0FF3395E0FEEF99
:100224002407FFE43EFEEF7803CEA2E713CE13D8F3
:10023400F8FF9005D2E0FD3395E0FC9005D1E0FB9A
:100244003395E0FAEB2DFDEA3CFCC3ED9FEE6480B0
:10025400F8EC648098500302034790020BE0FF33EC
:1002640095E0FEEF2407FFE43EFEEF7803CEA2E71D
:1002740013CE13D8F8FFC3ED9FEE6480F8EC6480CE
:100284009840030203479005D3E0FF3395E0FE90C6
:1002940005C8E0FD3395E0FCED2FFFEC3EFEEF7862
:1002A40003C333CE33CED8F9FF9005C4E0FBA3E0FB
:1002B400FAA3E02FF9EA3EFA9005D2E0FF3395E085
:1002C400FE9005D1E0FD3395E0FCED2FFFEC3EFE02
:1002D400E92FF9EA3EFA123765FF9005C9E0FBA35E
:1002E400E0FAA3E0F99005CEE0FD3395E08D82F5C8
:1002F4008312377EFE9005D0E0FDEEA8050880024B
:10030400C333D8FCFE90020BE05407FD3395E0FCA8
:10031400741F2DF58274043CF583E05E4FFD900557
:10032400D3E0FF3395E0FE9005C8E0FB3395E0FA97
:10033400EB2FFFEA3EFEEF7803C333CE33CED8F97A
:1003440002058C9005D2E0FF3395E0FE9005D1E0E4
:10035400FD3395E0FCED2FFFEC3ECF2401CF3400BC
:10036400FE900209E0FD7803A2E713D8FBFD339564
:10037400E0FCC3EF9DEC6480F8EE648098500302C7
:10038400046490020BE0FD7803A2E713D8FBFD336D
:1003940095E0FCC3EF9DEC6480F8EE648098400324
:1003A4000204649005D3E0FF3395E0FE9005C8E0B5
:1003B400FD3395E0FCED2FFFEC3EFEEF7803C333F5
:1003C400CE33CED8F9FF9005C4E0FBA3E0FAA3E056
:1003D4002FF9EA3EFA9005D2E0FF3395E0FE90054E
:1003E400D1E0FD3395E0FCED2FFFEC3EFEE92FF963
:1003F400EA3EFA123765FF9005C9E0FBA3E0FAA3D1
:10040400E0F99005CEE0FD3395E08D82F583123757
:100414007EFE9005D0E0FDEEA805088002C333D827
:10042400FCFE900209E05407FD3395E0FC74162DA0
:10043400F58274023CF583E05E4FFD9005D3E0FF46
:100444003395E0FE9005C8E0FB3395E0FAEB2FFF0F
:10045400EA3EFEEF7803C333CE33CED8F902058CDF
:100464009005D2E0FF3395E0FE9005D1E0FD339591
:10047400E0FCED2FFFEC3ECF2401CF3400FE9002D0
:1004840009E0FD7803A2E713D8FBFD3395E0FCEF08
:100494006D7002EE6C60030205C290020BE0FD7801
:1004A40003A2E713D8FBFD3395E0FCEF6D7002EE79
:1004B4006C60030205C29005D3E0FF3395E0FE9023
:1004C40005C8E0FD3395E0FCED2FFFEC3EFEEF7830
:1004D40003C333CE33CED8F9FF9005C4E0FBA3E0C9
:1004E400FAA3E02FF9EA3EFA9005D2E0FF3395E053
:1004F400FE9005D1E0FD3395E0FCED2FFFEC3EFED0
:10050400E92FF9EA3EFA123765FF9005C9E0FBA32B
:10051400E0FAA3E0F99005CEE0FD3395E08D82F595
:100524008312377EFE9005D0E0FDEEA80508800218
:10053400C333D8FCFE900209E05407FD3395E0FC78
:1005440074162DF58274023CF583E05EFE90020B76
:10055400E05407FD3395E0FC741F2DF58274043CD0
:10056400F583E05E4FFD9005D3E0FF3395E0FE9008
:1005740005C8E0FB3395E0FAEB2FFFEA3EFEEF7887
:1005840003C333CE33CED8F9FF9005C4E0FBA3E018
:10059400FAA3E02FF9EA3EFA9005D2E0FF3395E0A2
:1005A400FE9005D1E0F5823395E0F583E5822FFFD7
:1005B400E5833EFEE92FF9EA3EFAED123800900297
:1005C40009E0FF3395E0FEEF2407FFE43EFEEF78F9
:1005D40003CEA2E713CE13D8F8FF9005D2E0FD3383
:1005E40095E0FC9005D1E0FB3395E0FAEB2DFDEAB4
:1005F4003CFCC3ED9FEE6480F8EC648098500302E9
:1006040006D790020BE0FF7803A2E713D8FBFF3371
:1006140095E0FEC3ED9FEE6480F8EC64809840039F
:100624000206D79005D3E0FF3395E0FE9005C8E0BD
:10063400FD3395E0FCED2FFFEC3EFEEF7803C33372
:10064400CE33CED8F9FF9005C4E0FBA3E0FAA3E0D3
:100654002FF9EA3EFA9005D2E0FF3395E0FE9005CB
:10066400D1E0FD3395E0FCED2FFFEC3ECF2401CF2C
:100674003400FEE92FF9EA3EFA123765FF9005C906
:10068400E0FBA3E0FAA3E0F99005CEE0FD3395E0AA
:100694008D82F58312377EFE9005D0E0FDC3740889
:1006A4009DFDEEA805088002C313D8FC4FFD9005FC
:1006B400D3E0FF3395E0FE9005C8E0FB3395E0FA04
:1006C400EB2FFFEA3EFEEF7803C333CE33CED8F9E7
:1006D400020A6A900209E0FF3395E0FEEF2407FF67
:1006E400E43EFEEF7803CEA2E713CE13D8F8FF90D2
:1006F40005D2E0FD3395E0FC9005D1E0FB3395E0B5
:10070400FAEB2DFDEA3CFCC3ED9FEE6480F8EC644B
:100714008098500302080F90020BE0FF3395E0FE2F
:10072400EF2407FFE43EFEEF7803CEA2E713CE13D7
:10073400D8F8FFC3ED9FEE6480F8EC648098400322
:1007440002080F9005D3E0FF3395E0FE9005C8E062
:10075400FD3395E0FCED2FFFEC3EFEEF7803C33351
:10076400CE33CED8F9FF9005C4E0FBA3E0FAA3E0B2
:100774002FF9EA3EFA9005D2E0FF3395E0FE9005AA
:10078400D1E0FD3395E0FCED2FFFEC3ECF2401CF0B
:100794003400FEE92FF9EA3EFA123765FF9005C9E5
:1007A400E0FBA3E0FAA3E0F99005CEE0FD3395E089
:1007B4008D82F58312377EFE9005D0E0FDC3740868
:1007C4009DFDEEA805088002C313D8FCFE90020B21
:1007D400E05407FD3395E0FC741F2DF58274043C4E
:1007E400F583E05E4FFD9005D3E0FF3395E0FE9086
:1007F40005C8E0FB3395E0FAEB2FFFEA3EFEEF7805
:1008040003C333CE33CED8F9020A6A9005D2E0FF8F
:100814003395E0FE9005D1E0FD3395E0FCED2FFF2C
:10082400EC3ECF2401CF3400FE900209E0FD7803B2
:10083400A2E713D8FBFD3395E0FCC3EF9DEC648085
:10084400F8EE648098500302093790020BE0FD78BB
:1008540003A2E713D8FBFD3395E0FCC3EF9DEC64E2
:1008640080F8EE64809840030209379005D3E0FFD6
:100874003395E0FE9005C8E0FD3395E0FCED2FFFD5
:10088400EC3EFEEF7803C333CE33CED8F9FF9005A8
:10089400C4E0FBA3E0FAA3E02FF9EA3EFA9005D204
:1008A400E0FF3395E0FE9005D1E0FD3395E0FCEDEB
:1008B4002FFFEC3ECF2401CF3400FEE92FF9EA3EAE
:1008C400FA123765FF9005C9E0FBA3E0FAA3E0F94B
:1008D4009005CEE0FD3395E08D82F58312377EFEE0
:1008E4009005D0E0FDC374089DFDEEA805088002C4
:1008F400C313D8FCFE900209E05407FD3395E0FCD5
:1009040074162DF58274023CF583E05E4FFD90056C
:10091400D3E0FF3395E0FE9005C8E0FB3395E0FAA1
:10092400EB2FFFEA3EFEEF7803C333CE33CED8F984
:10093400020A6A9005D2E0FF3395E0FE9005D1E00B
:10094400FD3395E0FCED2FFFEC3ECF2401CF3400C6
:10095400FE900209E0FD7803A2E713D8FBFD33956E
:10096400E0FCEF6D7002EE6C6003020AA690020BCD
:10097400E0FD7803A2E713D8FBFD3395E0FCEF6DAF
:100984007002EE6C6003020AA69005D3E0FF339573
:10099400E0FE9005C8E0FD3395E0FCED2FFFEC3E52
:1009A400FEEF7803C333CE33CED8F9FF9005C4E00D
:1009B400FBA3E0FAA3E02FF9EA3EFA9005D2E0FFA8
:1009C4003395E0FE9005D1E0FD3395E0FCED2FFF7B
:1009D400EC3ECF2401CF3400FEE92FF9EA3EFA12AF
:1009E4003765FF9005C9E0FBA3E0FAA3E0F99005A1
:1009F400CEE0FD3395E08D82F58312377EFE9005BF
:100A0400D0E0FDC374089DFDEEA805088002C31361
:100A1400D8FCFE900209E05407FD3395E0FC7416FF
:100A24002DF58274023CF583E05EFE90020BE054E7
:100A340007FD3395E0FC741F2DF58274043CF583A7
:100A4400E05E4FFD9005D3E0FF3395E0FE9005C8CE
:100A5400E0FB3395E0FAEB2FFFEA3EFEEF7803C3A9
:100A640033CE33CED8F9FF9005C4E0FBA3E0FAA35C
:100A7400E02FF9EA3EFA9005D2E0FF3395E0FE90CC
:100A840005D1E0F5823395E0F583E5822FFFE58318
:100A94003ECF2401CF3400FEE92FF9EA3EFAED12ED
:0B0AA40038009005CEE004F002009145
:010AAF002224
:0B0AB0009005C4EBF0A3EAF0A3E9F00E
:100ABB009005CDE0FF9005CCE08FF0A49005CFF032
:100ACB00C3ED64809480ED54074003FF800324083A
:100ADB00FF9005D0EFF0C3ED64809480400AED7574
:100AEB00F008123743FF800BAF05EF75F008123794
:100AFB004314FF9005D1EFF0E49005CEF09005CFB5
:100B0B00E0FF9005CEE0FEC3EF6480F8EE648098C2
:100B1B0040030215019005CCE0FFEE8FF012374336
:100B2B00AFF09005D3EFF03395E0FE9005C8E0FDF4
:100B3B003395E0FCED2FFFEC3EFE90020AE0FD3317
:100B4B0095E0FCC3EF9DEC6480F8EE648098500355
:100B5B000214F890020CE0FD3395E0FCC3EF9DEC22
:100B6B006480F8EE64809840030214F89005CCE0A2
:100B7B00FF9005CEE0FE8FF01237439005D2F0FBCD
:100B8B00900209E0FF3395E0FEEF2407FFE43EFE01
:100B9B007C007D08123846EBFD3395E0FC9005D1C7
:100BAB00E0FB3395E0FAEB2DFDEA3CFCC3ED9FEE49
:100BBB006480F8EC6480985003020C8E90020BE07A
:100BCB00FF75F008123743FF3395E0FEC3ED9FEE40
:100BDB006480F8EC6480984003020C8E9005D3E09F
:100BEB00FF3395E0FE9005C8E0FD3395E0FCED2F5B
:100BFB00FFEC3EFEEF7803C333CE33CED8F9FF9034
:100C0B0005C4E0FBA3E0FAA3E02FF9EA3EFA900556
:100C1B00D2E0FF3395E0FE9005D1E0FD3395E0FC8B
:100C2B00ED2FFFEC3EFEE92FF9EA3EFA123765F4A1
:100C3B00FF9005C9E0FBA3E0FAA3E0F99005CEE035
:100C4B00FD3395E08D82F58312377EFE9005D0E063
:100C5B00FDEEA805088002C333D8FC6FF4FD9005A8
:100C6B00D3E0FF3395E0FE9005C8E0FB3395E0FA47
:100C7B00EB2FFFEA3EFEEF7803C333CE33CED8F92A
:100C8B00020FEC900209E0FF3395E0FEEF2407FF23
:100C9B00E43EFE7C007D081238469005D2E0FD3321
:100CAB0095E0FC9005D1E0FB3395E0FAEB2DFBEAE8
:100CBB003CFAC3EB9FEE6480F8EA64809850030221
:100CCB000DB390020BE0FF3395E0FEEF2407FFE43A
:100CDB003EFE7C007D08123846C3EB9FEE6480F825
:100CEB00EA6480984003020DB39005D3E0FF33957F
:100CFB00E0FE9005C8E0FD3395E0FCED2FFFEC3EE8
:100D0B00FEEF7803C333CE33CED8F9FF9005C4E0A2
:100D1B00FBA3E0FAA3E02FF9EA3EFA9005D2E0FF3D
:100D2B003395E0FE9005D1E0FD3395E0FCED2FFF10
:100D3B00EC3EFEE92FF9EA3EFA123765F4FF900517
:100D4B00C9E0FBA3E0FAA3E0F99005CEE0FD3395F3
:100D5B00E08D82F58312377EFE9005D0E0FDEEA884
:100D6B0005088002C333D8FCFE90020BE05407FD4C
:100D7B003395E0FC741F2DF58274043CF583E05E23
:100D8B006FF4FD9005D3E0FF3395E0FE9005C8E0CE
:100D9B00FB3395E0FAEB2FFFEA3EFEEF7803C3330C
:100DAB00CE33CED8F9020FEC9005D2E0FF3395E0AD
:100DBB00FE9005D1E0FD3395E0FCED2FFFEC3EFE00
:100DCB00900209E0FD75F008123743FD3395E0FC06
:100DDB00C3EF9DEC6480F8EE6480985003020ECA5A
:100DEB0090020BE0FD75F008123743FD3395E0FCE4
:100DFB00C3EF9DEC6480F8EE6480984003020ECA4A
:100E0B009005D3E0FF3395E0FE9005C8E0FD3395E8
:100E1B00E0FCED2FFFEC3EFEEF7803C333CE33CE79
:100E2B00D8F9FF9005C4E0FBA3E0FAA3E02FF9EAA1
:100E3B003EFA9005D2E0FF3395E0FE9005D1E0FD40
:100E4B003395E0FCED2FFFEC3EFEE92FF9EA3EFA7D
:100E5B00123765F4FF9005C9E0FBA3E0FAA3E0F9B4
:100E6B009005CEE0FD3395E08D82F58312377EFE43
:100E7B009005D0E0FDEEA805088002C333D8FCFE38
:100E8B00900209E05407FD3395E0FC74162DF582B2
:100E9B0074023CF583E05E6FF4FD9005D3E0FF3305
:100EAB0095E0FE9005C8E0FB3395E0FAEB2FFFEAE7
:100EBB003EFEEF7803C333CE33CED8F9020FEC905E
:100ECB0005D2E0FF3395E0FE9005D1E0FD3395E0D0
:100EDB00FCED2FFFEC3EFE900209E0FD75F00812D1
:100EEB003743FD3395E0FCEF6D7002EE6C6003024F
:100EFB00102290020BE0FD75F008123743FD33957D
:100F0B00E0FCEF6D7002EE6C60030210229005D3D3
:100F1B00E0FF3395E0FE9005C8E0FD3395E0FCED76
:100F2B002FFFEC3EFEEF7803C333CE33CED8F9FF61
:100F3B009005C4E0FBA3E0FAA3E02FF9EA3EFA9098
:100F4B0005D2E0FF3395E0FE9005D1E0FD3395E04F
:100F5B00FCED2FFFEC3EFEE92FF9EA3EFA12376566
:100F6B00F4FF9005C9E0FBA3E0FAA3E0F99005CEEE
:100F7B00E0FD3395E08D82F58312377EFE9005D030
:100F8B00E0FDEEA805088002C333D8FCFE900209F1
:100F9B00E05407FD3395E0FC74162DF58274023C8A
:100FAB00F583E05EFE90020BE05407FD3395E0FC09
:100FBB00741F2DF58274043CF583E05E6FF4FD9095
:100FCB0005D3E0FF3395E0FE9005C8E0FB3395E0D9
:100FDB00FAEB2FFFEA3EFEEF7803C333CE33CED8C6
:100FEB00F9FF9005C4E0FBA3E0FAA3E02FF9EA3E7A
:100FFB00FA9005D2E0FF3395E0FE9005D1E0F58243
:10100B003395E0F583E5822FFFE5833EFEE92FF96B
:10101B00EA3EFAED1238009005D2E0FF3395E0FE80
:10102B009005D1E0FD3395E0FCED2FFFEC3ECF2496
:10103B0001CF3400FE900209E0FD3395E0FCC3EFD5
:10104B009DEC6480F8EE648098500302112B9002A3
:10105B000BE0FD75F008123743FD3395E0FCC3EF51
:10106B009DEC6480F8EE648098400302112B900590
:10107B00D3E0FF3395E0FE9005C8E0FD3395E0FC2F
:10108B00ED2FFFEC3EFEEF7803C333CE33CED8F912
:10109B00FF9005C4E0FBA3E0FAA3E02FF9EA3EFAC8
:1010AB009005D2E0FF3395E0FE9005D1E0FD33953E
:1010BB00E0FCED2FFFEC3ECF2401CF3400FEE92FF7
:1010CB00F9EA3EFA123765F4FF9005C9E0FBA3E09D
:1010DB00FAA3E0F99005CEE0FD3395E08D82F58320
:1010EB0012377EFE9005D0E0FDC374089DFDEEA87F
:1010FB0005088002C313D8FC6FF4FD9005D3E0FF05
:10110B003395E0FE9005C8E0FB3395E0FAEB2FFF3B
:10111B00EA3EFEEF7803C333CE33CED8F90214BCCC
:10112B00900209E0FF3395E0FEEF2407FFE43EFE5B
:10113B007C007D081238469005D2E0FD3395E0FC2B
:10114B009005D1E0FB3395E0FAEB2DFDEA3CCD2485
:10115B0001FBE43DFAC3EB9FEE6480F8EA648098F0
:10116B00500302126190020BE0FF3395E0FEEF2477
:10117B0007FFE43EFE7C007D08123846C3EB9FEE72
:10118B006480F8EA64809840030212619005D3E012
:10119B00FF3395E0FE9005C8E0FD3395E0FCED2FA5
:1011AB00FFEC3EFEEF7803C333CE33CED8F9FF907E
:1011BB0005C4E0FBA3E0FAA3E02FF9EA3EFA9005A1
:1011CB00D2E0FF3395E0FE9005D1E0FD3395E0FCD6
:1011DB00ED2FFFEC3ECF2401CF3400FEE92FF9EACF
:1011EB003EFA123765F4FF9005C9E0FBA3E0FAA3C2
:1011FB00E0F99005CEE0FD3395E08D82F583123753
:10120B007EFE9005D0E0FDC374089DFDEEA8050899
:10121B008002C313D8FCFE90020BE05407FD3395FC
:10122B00E0FC741F2DF58274043CF583E05E6FF4D3
:10123B00FD9005D3E0FF3395E0FE9005C8E0FB334E
:10124B0095E0FAEB2FFFEA3EFEEF7803C333CE3384
:10125B00CED8F90214BC9005D2E0FF3395E0FE9096
:10126B0005D1E0FD3395E0FCED2FFFEC3ECF2401E3
:10127B00CF3400FE900209E0FD75F008123743FDF4
:10128B003395E0FCC3EF9DEC6480F8EE64809850DE
:10129B000302138990020BE0FD75F008123743FD32
:1012AB003395E0FCC3EF9DEC6480F8EE64809840CE
:1012BB00030213899005D3E0FF3395E0FE9005C838
:1012CB00E0FD3395E0FCED2FFFEC3EFEEF7803C322
:1012DB0033CE33CED8F9FF9005C4E0FBA3E0FAA3DD
:1012EB00E02FF9EA3EFA9005D2E0FF3395E0FE904D
:1012FB0005D1E0FD3395E0FCED2FFFEC3ECF240153
:10130B00CF3400FEE92FF9EA3EFA123765F4FF906D
:10131B0005C9E0FBA3E0FAA3E0F99005CEE0FD33AD
:10132B0095E08D82F58312377EFE9005D0E0FDC3EC
:10133B0074089DFDEEA805088002C313D8FCFE902F
:10134B000209E05407FD3395E0FC74162DF5827409
:10135B00023CF583E05E6FF4FD9005D3E0FF33951F
:10136B00E0FE9005C8E0FB3395E0FAEB2FFFEA3E79
:10137B00FEEF7803C333CE33CED8F90214BC9005FD
:10138B00D2E0FF3395E0FE9005D1E0FD3395E0FC14
:10139B00ED2FFFEC3ECF2401CF3400FE900209E08D
:1013AB00FD75F008123743FD3395E0FCEF6D7002CD
:1013BB00EE6C60030214F890020BE0FD75F008125E
:1013CB003743FD3395E0FCEF6D7002EE6C6003026A
:1013DB0014F89005D3E0FF3395E0FE9005C8E0FDCF
:1013EB003395E0FCED2FFFEC3EFEEF7803C333CEDD
:1013FB0033CED8F9FF9005C4E0FBA3E0FAA3E02FAE
:10140B00F9EA3EFA9005D2E0FF3395E0FE9005D164
:10141B00E0FD3395E0FCED2FFFEC3ECF2401CF3404
:10142B0000FEE92FF9EA3EFA123765F4FF9005C981
:10143B00E0FBA3E0FAA3E0F99005CEE0FD3395E0E5
:10144B008D82F58312377EFE9005D0E0FDC37408C4
:10145B009DFDEEA805088002C313D8FCFE9002097F
:10146B00E05407FD3395E0FC74162DF58274023CB5
:10147B00F583E05EFE90020BE05407FD3395E0FC34
:10148B00741F2DF58274043CF583E05E6FF4FD90C0
:10149B0005D3E0FF3395E0FE9005C8E0FB3395E004
:1014AB00FAEB2FFFEA3EFEEF7803C333CE33CED8F1
:1014BB00F9FF9005C4E0FBA3E0FAA3E02FF9EA3EA5
:1014CB00FA9005D2E0FF3395E0FE9005D1E0F5826E
:1014DB003395E0F583E5822FFFE5833ECF2401CFE3
:1014EB003400FEE92FF9EA3EFAED1238009005CEF2
:0614FB00E004F0020B0802
:0115010022C7
:1043C7009005B7EFF0A3EDF0A3EBF0A3EAF0A3E9B4
:0143D700F0F5
:1043D800900208E070061200030244B7900208E059
:1043E8006401703C9005B7E0FDA3E09005C8F0902B
:1043F80005B9E0F9A3E0FAA3E09005C9C9F0A3EA7A
:10440800F0A3E9F09005BCE09005CCF09005BDE084
:104418009005CDF07B017A0079081200390244F743
:10442800900208E06402703C1200039005B7E0FDBA
:10443800A3E09005C8F09005B9E0F9A3E0FAA3E07D
:104448009005C9C9F0A3EAF0A3E9F09005BCE09093
:1044580005CCF09005BDE09005CDF07B017A0079A0
:1044680008020039900208E06403703B9005B7E049
:10447800FDA3E09005C8F09005B9E0F9A3E0FAA320
:10448800E09005C9C9F0A3EAF0A3E9F09005BCE003
:104498009005CCF09005BDE09005CDF07B017A0247
:1044A800791F1215028008900208E06404703890A1
:1044B80005B7E0FDA3E09005C8F09005B9E0F9A3C1
:1044C800E0FAA3E09005C9C9F0A3EAF0A3E9F090E7
:1044D80005BCE09005CCF09005BDE09005CDF07BE3
:1044E800017A007908803E900208E06405703990EE
:1044F80005B7E0FDA3E09005C8F09005B9E0F9A381
:10450800E0FAA3E09005C9C9F0A3EAF0A3E9F090A6
:1045180005BCE09005CCF09005BDE09005CDF07BA2
:10452800017A02791F021502900208E064067039C8
:104538009005B7E0FDA3E09005C8F09005B9E0F953
:10454800A3E0FAA3E09005C9C9F0A3EAF0A3E9F053
:104558009005BCE09005CCF09005BDE09005CDF04D
:104568007B017A007908024628900208E064077007
:10457800389005B7E0FDA3E09005C8F09005B9E0D4
:10458800F9A3E0FAA3E09005C9C9F0A3EAF0A3E90A
:10459800F09005BCE09005CCF09005BDE09005CD0D
:1045A800F07B017A02791F8077900208E064087036
:1045B800729005B7E0FDA3E09005C8F09005B9E05A
:1045C800F9A3E0FAA3E09005C9C9F0A3EAF0A3E9CA
:1045D800F09005BCE09005CCF09005BDE09005CDCD
:1045E800F07B017A007908120AB09005B7E0FDA3C4
:1045F800E09005C8F09005B9E0F9A3E0FAA3E090CF
:1046080005C9C9F0A3EAF0A3E9F09005BCE090055C
:10461800CCF09005BDE09005CDF07B017A02791FC2
:03462800120AB0C3
:01462B00226C
:0C5D7F007B019006A0E0FD90067FECF098
:105D8B0090067BEBF0A3EAF0A3E9F090020AE0FFA8
:105D9B0090067FE0FEC3EF6480F8EE648098407558
:105DAB0090020CE06480F8EE6480985068900209D1
:105DBB00E0C36480F8ED648098405A90020BE06475
:105DCB0080F8ED648098504D90067FE0FF3395E0AE
:105DDB00FEEF7803C333CE33CED8F9FF90067BE0CA
:105DEB00FBA3E0FAA3E02FF9EA3EFAED7803A2E772
:105DFB0013D8FBFF3395E0FEE92FF9EA3EFA123791
:105E0B0065FFED5407FE7401A806088002C333D862
:065E1B00FC4F12380022CA
:105F6300900680EBF0A3EAF0A3E9F090020AE0FFC9
:105F7300900684E0FEC3EF6480F8EE648098407777
:105F830090020CE06480F8EE648098506A900209F5
:105F9300E0C36480F8ED648098405C90020BE06499
:105FA30080F8ED648098504F900684E0FF3395E0CD
:105FB300FEEF7803C333CE33CED8F9FF900680E0EB
:105FC300FBA3E0FAA3E02FF9EA3EFAED7803A2E798
:105FD30013D8FBFF3395E0FEE92FF9EA3EFA1237B7
:105FE30065F4FFED5407FE7401A806088002C3336D
:085FF300D8FC4FF41238002223
:0A5E21009006A0E0FD900689ECF069
:105E2B00900685EBF0A3EAF0A3E9F090020AE0FFFD
:105E3B00900689E0FEC3EF6480F8EE6480984077AB
:105E4B0090020CE06480F8EE648098506A9002092E
:105E5B00E0C36480F8ED648098405C90020BE064D2
:105E6B0080F8ED648098504F900689E0FF3395E001
:105E7B00FEEF7803C333CE33CED8F9FF900685E01F
:105E8B00FBA3E0FAA3E02FF9EA3EFAED7803A2E7D1
:105E9B0013D8FBFF3395E0FEE92FF9EA3EFA1237F0
:105EAB0065F4FFED5407FE7401A806088002C333A6
:085EBB00D8FC6FF4123800223C
:105EC3009006A0EFF0AC05900208E070097A027921
:105ED3001F125D7F8035900208E0640170097A002B
:105EE3007908125D7F8033900208E0640370157BAC
:105EF300017A02791F9006A0E0FD900684ECF0126F
:105F03005F638007900208E0B404087B017A00799C
:105F130008800D900208E0B405137B017A02791F13
:105F23009006A0E0FD900684ECF0025F6390020807
:105F3300E0B406028020900208E0B407087B017AEF
:105F430002791F8017900208E0640870127B017ABF
:105F530002791F125E217B017A007908125E2122E9
:0B6831009005B1EBF0A3EAF0A3E9F042
:10683C00E4A3F0A3F09005B4F0E49005B5F0900556
:10684C00B4E075F008A4FF9005B1E0FBA3E0FAA357
:10685C00E02FF9EA35F0FA9005B5E07E0029F9EE63
:10686C003AFAE41238009005B5E004F0E0B408CE32
:0A687C009005B4E004F0E0B440BF62
:0168860022EF
:066612007B017A02791FF2
:0B6618009005B1EBF0A3EAF0A3E9F05D
:10662300E4A3F0A3F09005B4F0E49005B5F0900571
:10663300B4E075F008A4FF9005B1E0FBA3E0FAA372
:10664300E02FF9EA35F0FA9005B5E07E0029F9EE7E
:106653003AFA74FF1238009005B5E004F0E0B4088C
:0B666300CD9005B4E004F0E0B440BEB0
:01666E002209
:10691B00AD07ED70051266128032EDB401117B01EB
:10692B007A0079081266187B017A02791F8023EDB1
:10693B00B4020C1266127B017A007908026618ED1C
:10694B00B403127B017A02791F1268317B017A0042
:06695B00790812683122E8
:0E522B009005CAEBF0A3EAF0A3E9F0A3EDF0C2
:10523900C364809480400CE0FF7803A2E713D8FB95
:10524900FF800D9005CDE0FF75F00812374314FF7C
:10525900AD079005CFE0FBA3E0FAA3E0F9A3E0FFD7
:10526900F5823395E0F583E92582F9EA3583FA1267
:105279003765E4123800C3ED648094C05076C3EDFD
:1052890064809480406E9005CFE0FBA3E0FAA3E030
:10529900F9EF3395E0FEE92FF9EA3EFAC003C002BF
:1052A900C001123765FC9005CEE0FF3395E0FEEFB3
:1052B9007803C333CE33CED8F9FF9005CAE0FBA3F8
:1052C900E0FAA3E02FF9EA3EFAEDFF3395E0FEE9B3
:1052D9002FF9EA3EFA123765FF9005CDE05407FE33
:1052E900EFA806088002C313D8FC4CD001D002D025
:1052F90003123800EDFF3395E0FEEF2401FFE43E91
:10530900FEC3EF9440EE6480948040030253A0C32F
:10531900EE6480948050030253A09005CFE0FBA374
:10532900E0FAA3E0F9A3E0FF3395E0FEE92FF9EAFB
:105339003EFAC003C002C001123765FC9005CEE0F9
:10534900FF3395E0FEEF7803C333CE33CED8F9FFB0
:105359009005CAE0FBA3E0FAA3E02FF9EA3EFAAF11
:1053690005EF3395E0FEEF2401FFE43EFEE92FF956
:10537900EA3EFA123765FF9005CDE05407FEC37483
:10538900089EFEEFA806088002C333D8FC4CD00162
:07539900D002D0031238001E
:0153A00022EA
:10598B009005BCEFF0A3EDF0A3EBF0A3EAF0A3E9D5
:01599B00F01B
:10599C00E49005C6F09005C5E0FF9005C4E08FF0DB
:1059AC00A49005C7F09005C7E0FF9005C6E0FEC3C4
:1059BC00EF6480F8EE6480984003025A6F9005C43F
:1059CC00E0FB9005C6E08BF012374375F008A4FDA0
:1059DC009005BCE02D9005C8F0EE8BF0123743AF6C
:1059EC00F09005BDE02F9005C9F0C3648094804011
:1059FC0069E0FF648094C050619005C8E0FD90059B
:105A0C00CEEFF09005BEE0F9A3E0FAA3E09005CF4D
:105A1C00C9F0A3EAF0A3E9F09005C6E09005D2F036
:105A2C007B017A00790812522B9005C8E0FDA3E0A7
:105A3C009005CEF09005C1E0F9A3E0FAA3E0900543
:105A4C00CFC9F0A3EAF0A3E9F09005C6E09005D227
:105A5C00F07B017A02791F12522B9005C6E004F0FC
:035A6C000259B12B
:015A6F002214
:0E4EB2009005CAEBF0A3EAF0A3E9F0A3EDF03F
:104EC000C364809480400CE0FF7803A2E713D8FB12
:104ED000FF800D9005CDE0FF75F00812374314FFF9
:104EE000AD07C3ED648094C04003024FA8C3ED64D6
:104EF0008094805003024FA89005CEE0FF3395E0E8
:104F0000FEEF7803C333CE33CED8F9FF9005CAE065
:104F1000FBA3E0FAA3E02FF9EA3EFAEDFF3395E0B8
:104F2000FEE92FF9EA3EFA123765FF9005CDE0540D
:104F300007FCC374089CFE74FFA806088002C31314
:104F4000D8FC5F1238009005CEE0FF3395E0FEEF0D
:104F50007803C333CE33CED8F9FF9005CAE0FBA364
:104F6000E0FAA3E02FF9EA3EFAEDFF3395E0FEE91F
:104F70002FF9EA3EFAC003C002C001123765FF9064
:104F800005CFE0FBA3E0FAA3E0F9A3E0F582758387
:104F90000012377EFEA804088002C333D8FC4FD02D
:104FA00001D002D003123800EDFF3395E0FEEF246C
:104FB00001FFE43EFEC3EF9440EE64809480400322
:104FC00002508EC3EE64809480500302508E900590
:104FD000CEE0FF3395E0FEEF7803C333CE33CED877
:104FE000F9FF9005CAE0FBA3E0FAA3E02FF9EA3E3F
:104FF000FAEDFF3395E0FEEF2401FFE43EFEE92FDA
:10500000F9EA3EFA123765FF9005CDE05407FC74CB
:10501000FFA804088002C333D8FC5F123800900553
:10502000CEE0FF3395E0FEEF7803C333CE33CED826
:10503000F9FF9005CAE0FBA3E0FAA3E02FF9EA3EEE
:10504000FAAF05EF3395E0FEEF2401FFE43EFEE901
:105050002FF9EA3EFAC003C002C001123765FF9083
:1050600005CFE0FBA3E0FAA3E0F9A3E0F5827583A6
:105070000012377EFEC374089CFDEEA8050880026E
:0E508000C313D8FC4FD001D002D00312380069
:01508E0022FF
:105B54009005BCEFF0A3EDF0A3EBF0A3EAF0A3E90A
:015B6400F050
:105B6500E49005C6F09005C5E0FF9005C4E08FF010
:105B7500A49005C7F09005C7E0FF9005C6E0FEC3F9
:105B8500EF6480F8EE6480984003025C339005C4AE
:105B9500E0FB9005C6E08BF08475F008A4FD900548
:105BA500BCE02D9005C8F0EE8BF0849005BDE02596
:105BB500F09005C9F0C3648094804069E0FF64807B
:105BC50094C050619005C8E0FD9005CEEFF09005BA
:105BD500BEE0F9A3E0FAA3E09005CFC9F0A3EAF08F
:105BE500A3E9F09005C6E09005D2F07B017A007933
:105BF50008124EB29005C8E0FDA3E09005CEF090E6
:105C050005C1E0F9A3E0FAA3E09005CFC9F0A3EA46
:105C1500F0A3E9F09005C6E09005D2F07B017A0289
:0E5C2500791F124EB29005C6E004F0025B7AC1
:015C3300224E
:0B3C710090066AEDF0900669EFF0FD90
:103C7C0090020BE0131313541F1490066DF0C374D1
:103C8C00089DA3F0900209E0131313541F90066BC8
:103C9C00F090020BE0131313541FFF90066BE0C35C
:103CAC009F4003023EF090020AE090066CF09002F6
:103CBC000CE0FF3395E0FE90066CE0C39FEE648051
:103CCC00F87480984003023EE790066BE0FFA3E097
:103CDC00FE75F008A4241FF582E5F03402F583E5A7
:103CEC00822FF582E43583F583C083C082E0FD909A
:103CFC000669E0FCEDA804088002C313D8FCD0824E
:103D0C00D083F075F008EEA42408F582E5F03400B9
:103D1C00F583E5822FF582E43583F583C083C08279
:103D2C00E0FFA804088002C313D8FCD082D083F033
:103D3C0090066DE0FF90066BE0C39F4003023DEDE3
:103D4C00E0FFA3E0FE75F008A4241FF582E5F03433
:103D5C0002F583E5822FF582E43583F583C083C0B9
:103D6C0082E0FD75F008EEA42420F582E5F0340223
:103D7C00F583E5822FF582E43583F583E0FF900629
:103D8C006EE0FEEFA806088002C333D8FC4DD0824B
:103D9C00D083F090066BE0FFA3E0FD75F008A4243F
:103DAC0008F582E5F03400F583E5822FF582E435E1
:103DBC0083F583C083C082E0FC75F008EDA4240970
:103DCC00F582E5F03400F583E5822FF582E4358346
:103DDC00F583E0FFA806088002C333D8FC4C023EF2
:103DEC00D990066AE0FF7037A3E0FEA3E075F008F7
:103DFC00A4241FF582E5F03402F583E5822EF582CA
:103E0C00E43583F583C083C082E0FE90066EE02427
:103E1C0016F582E43402F583E0FDEE4D023ED9EF57
:103E2C00B4013890066BE0FFA3E075F008A42408F9
:103E3C00F582E5F03400F583E5822FF582E43583D5
:103E4C00F583C083C082E0FF90066EE02416F582F5
:103E5C00E43402F583E0FEEF4E807290066AE06473
:103E6C0002706FA3E0FFA3E0FE75F008A4241FF519
:103E7C0082E5F03402F583E5822FF582E43583F593
:103E8C0083C083C082E0FD90066EE02416F582E4C8
:103E9C003402F583E0FCED4CD082D083F075F00851
:103EAC00EEA42408F582E5F03400F583E5822FF5C5
:103EBC0082E43583F583C083C082E0FF90066EE018
:103ECC002416F582E43402F583E0FEEF4ED082D066
:103EDC0083F090066CE004F0023CBA90066BE004B0
:043EEC00F0023C9D07
:013EF00022AF
:0A31C300900670EDF090066FEFF03B
:1031CD00900209E0131313541F900673F0C3740893
:1031DD009FA3F090020BE0131313541F149006716C
:1031ED00F0900673E0FF900671E0FD3395E0FCC3AF
:1031FD00ED9F7480F86C98500302348B90020AE0B6
:10320D00900672F090020CE0FF3395E0FE9006728E
:10321D00E0C39FEE6480F87480984003023482907E
:10322D000671E0FFFD3395E0FCA3E0FE75F008A408
:10323D00241FF582E5F03402F583E5822DF582E554
:10324D00833CF583C083C082E0FD90066FE0FCED0A
:10325D00A804088002C333D8FCD082D083F0EFFDE0
:10326D003395E0FC75F008EEA42408F582E5F03402
:10327D0000F583E5822DF582E5833CF583C083C09F
:10328D0082E0FF90066FE0FEEFA806088002C333D0
:10329D00D8FCD082D083F0900673E0FF900671E0E9
:1032AD00FD3395E0FCD3ED9F7480F86C98500302CC
:1032BD003375E0FF3395E0FCA3E075F008A4241FFF
:1032CD00F582E5F03402F583E5822DF582E5833C48
:1032DD00F583C083C082E0FEEF3395E0FC9006726B
:1032ED00E0F975F008A4241EF582E5F03402F583AB
:1032FD00E5822DF582E5833CF583E0FF900674E0D1
:10330D00FBEFA803088002C313D8FC4ED082D083F4
:10331D00F075F008E9A42408F582E5F03400F58392
:10332D00E5822DF582E5833CF583C083C082E0FF05
:10333D00900671E0FD3395E0FCA3E075F008A42440
:10334D0007F582E5F03400F583E5822DF582E583FE
:10335D003CF583E0FE900674E0FDEEA805088002C2
:10336D00C313D8FC4F023474900670E0FF703BA37A
:10337D00E0FD3395E0FCA3E075F008A4241FF58271
:10338D00E5F03402F583E5822DF582E5833CF58386
:10339D00C083C082E0FE900674E0240DF582E43413
:1033AD0002F583E0FDEE4D023474EFB4013C90065E
:1033BD0071E0FF3395E0FEA3E075F008A42408F555
:1033CD0082E5F03400F583E5822FF582E5833EF545
:1033DD0083C083C082E0FF900674E0240DF582E483
:1033ED003402F583E0FEEF4E807D900670E06402BE
:1033FD00707AA3E0FFFD3395E0FCA3E0FE75F008C5
:10340D00A4241FF582E5F03402F583E5822DF582C3
:10341D00E5833CF583C083C082E0FD900674E02413
:10342D000DF582E43402F583E0FCED4CD082D083BF
:10343D00F0EFFD3395E0FC75F008EEA42408F5825D
:10344D00E5F03400F583E5822DF582E5833CF583C7
:10345D00C083C082E0FF900674E0240DF582E43451
:10346D0002F583E0FEEF4ED082D083F0900672E03D
:0E347D0004F0023211900671E014F00231EEFC
:01348B00221E
:08485500900694EFF0A3EDF0D2
:10485D00900209E0131313541F900696F090020B6B
:10486D00E0131313541FFF900696E0FEC3EF648010
:10487D00F8EE6480984003024A7690020AE09006B2
:10488D0097F090020CE0FF900697E0FEC3EF648076
:10489D00F8EE6480984003024A6D900694E0FD3373
:1048AD0095E0FCEEFB3395E0FAEB2DFDEA3CFCEFD9
:1048BD003395E0FEC3ED9FEE6480F8EC6480984084
:1048CD00030249B4EDAE047803C333CE33CED8F929
:1048DD00241FF58274023EF583C083C08290069634
:1048ED00E0FF3395E0FED082D083E5822FF582E59F
:1048FD00833EF583E0FD900697E0FCFF3395E0FEE7
:10490D00EF7803C333CE33CED8F9241FF58274026A
:10491D003EF583C083C082900696E0FF3395E0FE9E
:10492D00D082D083E5822FF582E5833EF583EDF0CD
:10493D00900694E0FF3395E0FEECFD3395E0FCED41
:10494D002FFFEC3EFEEF7803C333CE33CED8F924E0
:10495D0008F58274003EF583C083C082900696E010
:10496D00FDFF3395E0FED082D083E5822FF582E501
:10497D00833EF583E0FC900697E0FF3395E0FEEF74
:10498D007803C333CE33CED8F92408F58274003EB4
:10499D00F583EDFF3395E0FEE5822FF582E5833E4D
:1049AD00F583ECF0024A64900695E0FD70159006D3
:1049BD0097E0FF3395E0FEEF7803C333CE33CED8C7
:1049CD00F98017EDB40137900697E0FF3395E0FEBF
:1049DD00EF7803C333CE33CED8F9241FF58274029A
:1049ED003EF583C083C082900696E0FF3395E0FECE
:1049FD00D082D083E5822FF582E5833E80549006E8
:104A0D0095E0B40252900697E0FF3395E0FEEF7803
:104A1D0003C333CE33CED8F9FF241FF58274023E83
:104A2D00F583C083C082900696E0FD3395E0FCD0FF
:104A3D0082D083E5822DF582E5833CF58374FFF00A
:104A4D0074082FF58274003EF583E5822DF582E51D
:104A5D00833CF58374FFF0900697E004F002488FD5
:094A6D00900696E004F002486A8C
:014A7600221D
:08462C00900698EFF0A3EDF0F9
:10463400900209E0131313541F90069AF090020B92
:10464400E0131313541FFF90069AE0FEC3EF648037
:10465400F8EE648098400302485490020CE01490F1
:10466400069BF090020AE0FF90069BE0FEC3EF6415
:1046740080F8EE648098500302484B900698E0FD61
:104684003395E0FCEEFB3395E0FAEB2DFDEA3CFCC0
:10469400EF3395E0FEC3ED9FEE6480F8EC64809800
:1046A400500302478CEDAE047803C333CE33CED827
:1046B400F9241FF58274023EF583C083C0829006FC
:1046C4009AE0FF3395E0FED082D083E5822FF58215
:1046D400E5833EF583E0FD90069BE0FCFF3395E027
:1046E400FEEF7803C333CE33CED8F9241FF582749A
:1046F400023EF583C083C08290069AE0FF3395E0C2
:10470400FED082D083E5822FF582E5833EF583EDEA
:10471400F0900698E0FF3395E0FEECFD3395E0FC65
:10472400ED2FFFEC3EFEEF7803C333CE33CED8F942
:104734002408F58274003EF583C083C08290069AF3
:10474400E0FDFF3395E0FED082D083E5822FF58231
:10475400E5833EF583E0FC90069BE0FF3395E0FEA5
:10476400EF7803C333CE33CED8F92408F58274002E
:104774003EF583EDFF3395E0FEE5822FF582E58378
:104784003EF583ECF0024842900699E0FD701B90E0
:10479400069BE0FF3395E0FEEF7803C333CE33CEC0
:1047A400D8F9241FF5827402801DEDB401379006F8
:1047B4009BE0FF3395E0FEEF7803C333CE33CED8CE
:1047C400F92408F58274003EF583C083C082900604
:1047D4009AE0FF3395E0FED082D083E5822FF58204
:1047E400E5833E8054900699E0B4025290069BE023
:1047F400FF3395E0FEEF7803C333CE33CED8F9FF11
:10480400241FF58274023EF583C083C08290069A09
:10481400E0FD3395E0FCD082D083E5822DF582E57E
:10482400833CF58374FFF074082FF58274003EF521
:1048340083E5822DF582E5833CF58374FFF09006D1
:104844009BE014F002466790069AE004F0024641A9
:014854002241
:1065B20090069CEDF0A3EBF0AE07D3EE64809480DE
:1065C200400EEE648094895007E0FD123C71801BFE
:1065D200C3EE648094805013EE64809477400CEE96
:1065E200F404FF90069DE0FD1231C390069CE0FF8B
:1065F200D3648094804006A3E0FD02485590069C37
:10660200E0FFC3648094805006A3E0FD12462C2272
:0B4A77009005CDEBF0A3EAF0A3E9F0FE
:104A8200900209E0FF75F008123743FE9005D1F05D
:104A9200EF5407A3F090020BE0FF75F008123743C2
:104AA200FD9005D3F0EF5407A3F0ED6E6003024BC7
:104AB2004B90020AE09005D0F090020CE0FF9005C6
:104AC200D0E0FEC3EF6480F8EE6480984003024CAD
:104AD20098EEFF3395E0FEEF7803C333CE33CED8A2
:104AE200F9FF9005CDE0FBA3E0FAA3E02FF9EA3E3F
:104AF200FA9005D1E0FF3395E0FEE92FF9EA3EFA9C
:104B0200123765FF9005D2E0FD3395E0FC9005D4A5
:104B1200E0F5823395E0F583C3E5829DFDE5839C54
:104B2200FC74002DF58274003CF583E0FE9005D202
:104B3200E0FDEEA805088002C333D8FC4F1238000E
:104B42009005D0E004F0024ABB90020AE09005D042
:104B5200F090020CE0FF9005D0E0FEC3EF6480F815
:104B6200EE648098504FEEFF3395E0FEEF7803C37A
:104B720033CE33CED8F9FF9005CDE0FBA3E0FAA304
:104B8200E02FF9EA3EFA9005D1E0FF3395E0FEE925
:104B92002FF9EA3EFA123765FF9005D2E0FE74FF64
:104BA200A806088002C333D8FC4F1238009005D003
:104BB200E004F0809C9005D1E004FD9005D3E0C3B1
:104BC2006480F8ED648098505C90020AE09005D011
:104BD200F090020CE0FF9005D0E0FEC3EF6480F895
:104BE200EE648098503CEEFF3395E0FEEF7803C30D
:104BF20033CE33CED8F9FF9005CDE0FBA3E0FAA384
:104C0200E02FF9EA3EFAEDFF3395E0FEE92FF9EAEB
:104C12003EFA12376574FF1238009005D0E004F0B6
:104C220080AF0D809690020AE09005D0F090020CC1
:104C3200E0FF9005D0E0FEC3EF6480F8EE64809858
:104C42005054EEFF3395E0FEEF7803C333CE33CEFC
:104C5200D8F9FF9005CDE0FBA3E0FAA3E02FF9EA33
:104C62003EFA9005D3E0FF3395E0FEE92FF9EA3EE4
:104C7200FA123765FF9005D4E0FEC374089EFE74F5
:104C8200FFA806088002C313D8FC4F123800900513
:064C9200D0E004F0809761
:014C980022F9
:106C39007B017A02791F124A777B017A007908026F
:026C49004A7788
:10550A00900675EFF0A3EDF0A3EBF0A3EAF0A3E9A0
:10551A00F0A3E0FF3395E0FEEF25E0FDEE33FC74E7
:10552A00FE2DF58274FF3CF58312377EFF900675D7
:10553A00E02FFFC00774FF2DF58274FF3CF583123C
:10554A00377EFF900676E0FE2FFD123765FF900644
:10555A0075E02FFBC003900677E0FBA3E0FAA3E017
:10556A00F990000112377EFFEE2F900649F0D00322
:10557A00D00712508F90067AE0FFD364809481504E
:10558A0003025643EF3395E0FEEF25E0FDEE33FCD0
:10559A00ED24FEFFEC34FFFE900677E0FBA3E0FA71
:1055AA00A3E0F98F828E8312377EFF900675E02F73
:1055BA00FFC00774FF2DF58274FF3CF58312377E16
:1055CA00FF900676E02FFD90067AE0FCFF3395E027
:1055DA00FEEF24FFFFEE34FFFEEF25E0FFEE33FE81
:1055EA0074FE2FF58274FF3EF58312377EFF900614
:1055FA0075E02FFBC003ECFF3395E0FEEF24FFFFBD
:10560A00EE34FFFEEF25E0FFEE33FEEF24FFFFEE60
:10561A0034FFFE900677E0FB8F828E8312377EFF7F
:10562A00900676E02F900649F0D003D00712508FEB
:0A563A0090067AE014F002557F227A
:08623F00900651EFF0A3EDF011
:10624700900651E0FF900655F0A3EDF0900654E05C
:10625700FEEF2E900657F0ED2BA3F0900657E0FEC9
:10626700900655E0FFD3EE6480F8EF648098501DE8
:10627700900652E0FD125EC3900655E0FF90065867
:10628700E0FD125EC3900655E004F080CE900658FC
:10629700E0FF900656E0FDD3EF6480F8ED64809848
:1062A700501D900651E0FF125EC3900657E0FF9025
:0F62B7000656E0FD125EC3900656E004F080CE5E
:0162C60022B5
:0F508F00900647EDF0900646EFF0900648EBF0E4
:10509E00C3EF6480F8EB648098502A900646E0FFD8
:1050AE0090064CF0900648E0900646F0900648EFC9
:1050BE00F0A3E0FF90064CF0900647E0900649F012
:1050CE00900647EFF0900647E0FF900649E0C39F39
:1050DE00FFA3F0126C9390064BEFF0900646E0FFA4
:1050EE00900648E0C39FFF90064CF0126C9390061A
:1050FE004BE0C36480F8EF648098500302518EE455
:10510E0090064FF090064CE0FB90064FE0FFD3EB7D
:10511E006480F8EF648098400302522A90064AE0B9
:10512E00FD3395E0FCEF3395E0FE1238347C007DC4
:10513E000A123834EBFD3395E0FC123846AA06AB62
:10514E0007900647E0FF3395E0FE7C007D0A12389B
:10515E0034EF2BFFEE3ACF2405CF3400FE12384643
:10516E0090064EEFF0FD900646E0FF90064FE02FC2
:10517E00FF90064DF0125EC390064FE004F080845F
:10518E00E4900650F090064BE0FB900650E0FFD303
:10519E00EB6480F8EF648098400302522A90064C2C
:1051AE00E0FD3395E0FCEF3395E0FE1238347C00E1
:1051BE007D0A123834EBFD3395E0FC123846AA0610
:1051CE00AB07900646E0FF3395E0FE7C007D0A12A9
:1051DE003834EF2BFFEE3ACF2405CF3400FE1238D1
:1051EE004690064DEFF090064AE0C36480948050DE
:1051FE00047FFF80027F01900650E0FEEF8EF0A448
:10520E00FF900647E02F90064EF0FD90064DE0FF12
:0C521E00125EC3900650E004F0025193B1
:01522A002261
:0E6C9300C3EF648094805005EFF404FF2222CA
:103F2B004B061F010616030103030404FFFF4306A0
:0A3F3B0016000602430619020702F1
:106BE200900626E0FF3395E0EFFCA3E0FF3395E04B
:066BF200FEEC4EFCAE04B7
:016BF800227A
:106C2500900626E0900007123812900627E09000A3
:046C35000802381207
:1025A6009005B3EBF0A3EAF0A3E9F0EDB40900401F
:1025B600030228C49025C1F8282873022631022672
:1025C600860228C402272A02277E0227CF02282154
:1025D6000228720225DC9005B3E0FBA3E0FAA3E033
:1025E600F990000512377EFD90000612377E9005A1
:1025F600DEF012388D9005DFEBF0A3EAF0A3E9F0E8
:102606009005B3E0FBA3E0FAA3E0F99000031237CC
:102616007E9005E2F090000412377E9005E3F07B91
:10262600017A02791F122ECA0228219005B3E0FB17
:10263600A3E0FAA3E0F990000512377EFD900006AC
:1026460012377E9005DEF012388D9005DFEBF0A391
:10265600EAF0A3E9F09005B3E0FBA3E0FAA3E0F902
:1026660090000312377E9005E2F090000412377E48
:102676009005E3F07B017A02791F1222AB02277ED6
:102686009005B3E0FBA3E0FAA3E0F990000512374A
:102696007EFD90000612377E9005DEF012388D9092
:1026A60005DFEBF0A3EAF0A3E9F09005B3E0FBA3A6
:1026B600E0FAA3E0F990000312377E9005E2F0906D
:1026C600000412377E9005E3F07B017A02791F122F
:1026D6002BD19005B3E0FBA3E0FAA3E0F990000547
:1026E60012377EFD90000612377E9005DEF0123816
:1026F6008D9005DFEBF0A3EAF0A3E9F09005B3E0D7
:10270600FBA3E0FAA3E0F990000312377E9005E2FE
:10271600F090000412377E9005E3F07B017A007991
:10272600080222AB9005B3E0FBA3E0FAA3E0F99020
:10273600000512377EFD90000612377E9005DEF00A
:1027460012388D9005DFEBF0A3EAF0A3E9F09005CF
:10275600B3E0FBA3E0FAA3E0F990000312377E9002
:1027660005E2F090000412377E9005E3F07B017AD3
:1027760002791F122BD180009005B3E0FBA3E0FA8B
:10278600A3E0F990000512377EFD90000612377E11
:102796009005DEF012388D9005DFEBF0A3EAF0A38A
:1027A600E9F09005B3E0FBA3E0FAA3E0F99000039B
:1027B60012377E9005E2F090000412377E9005E312
:1027C600F07B017A007908804F9005B3E0FBA3E027
:1027D600FAA3E0F990000512377EFD900006123745
:1027E6007E9005DEF012388D9005DFEBF0A3EAF05F
:1027F600A3E9F09005B3E0FBA3E0FAA3E0F99000AB
:102806000312377E9005E2F090000412377E9005A1
:10281600E3F07B017A02791F022BD19005B3E0FB2E
:10282600A3E0FAA3E0F990000512377EFD900006BA
:1028360012377E9005DEF012388D9005DFEBF0A39F
:10284600EAF0A3E9F09005B3E0FBA3E0FAA3E0F910
:1028560090000312377E9005E2F090000412377E56
:102866009005E3F07B017A007908804F9005B3E08C
:10287600FBA3E0FAA3E0F990000512377EFD900075
:102886000612377E9005DEF012388D9005DFEBF0EC
:10289600A3EAF0A3E9F09005B3E0FBA3E0FAA3E016
:1028A600F990000312377E9005E2F090000412378B
:0F28B6007E9005E3F07B017A02791F122ECA2271
:1068D200900659EBF0A3EAF0A3E9F0A3E0FBA3E0F2
:1068E200FAA3E0F9C003C002C001900659E0FBA37D
:1068F200E0FAA3E0F91238AD90065FE0FF90065986
:10690200E0FBA3E0FAA3E0F9900003EF1238129043
:096912000660E090000402381256
:106AC700900009ED12381290068EE0FF90000A122E
:106AD700381290000712377E2D9000051238129059
:0C6AE700000812377E2F900006023812C3
:10688700C3ED64809480401BED648094C0501490E5
:106897000007ED12381290000912377E2D9000057F
:1068A7001238129005BBE0FFC364809480401BEF51
:1068B700648094C05014E090000812381290000AC7
:0B68C70012377E2F90000612381222BC
:1062C7009005BBEDF090000712377EFF3395E0FE97
:1062D700ED3395E0FCEF2DFFEE3CFEC36480948028
:1062E700401CEF9440EE6480948050129005BBE010
:1062F700FF9000071237CD900005EF1237CD9000C1
:106307000812377EFF3395E0FE9005BCE0FD33951C
:10631700E0FCEF2DFFEE3CFEC3648094804019EF54
:106327009440EE64809480500FE0FF90000812378D
:09633700CD900006EF1237CD22D3
:106488009005B3EBF0A3EAF0A3E9F09005B3E0FBC5
:10649800A3E0FAA3E0F990000512377EFF9000060A
:1064A80012377EFD9005B9E0F9A3E0FAA3E0900564
:1064B800C1C9F0A3EAF0A3E9F09005B3A3E0FAA3F9
:1064C800E0F990000312377E9005C4F090000412A2
:1064D800377E9005C5F09005B6E0FBA3E0FAA3E08F
:0464E800F902598BD1
:1064EC009005B3EBF0A3EAF0A3E9F09005B3E0FB61
:1064FC00A3E0FAA3E0F990000512377EFF900006A6
:10650C0012377EFD9005B9E0F9A3E0FAA3E09005FF
:10651C00C1C9F0A3EAF0A3E9F09005B3A3E0FAA394
:10652C00E0F990000312377E9005C4F0900004123D
:10653C00377E9005C5F09005B6E0FBA3E0FAA3E02A
:04654C00F9025B54A1
:10609000E4F594F593F592F591F596F595F5B2F54D
:1060A000B1D2A0D2A1D2A2D2A3126550E4FF126B4A
:1060B0001CEF600BE4FF126C8112348C12696112C8
:1060C0006CC3EF601CE4FF126C81C007126727C02D
:1060D00007126BE2AA06AB07D005D007125A7080F0
:1060E000DEE4FF126C81C007126BE2AC06AD07D094
:1060F000071267DAE4FF126C5DEF6003126A3E126A
:106100006961E4FF126C5DEF6003126B67E4FF12DC
:106110006C81C007126BE2AC06AD07D007126CAC05
:02612000808776
:106A3E009005B67401F0A37406F0A3741CF0A37451
:106A4E0001F0A37406F0A37413F07B017A06791F8C
:0E6A5E001264887B017A06791F7D080225A646
:106B67009005B67401F0A37406F0A3741CF0A37427
:106B770001F0A37406F0A37413F07B017A06791F62
:036B87000264ECB9
:0B6CA100EF1FAC0670011E4C70F622C5
:1053A100E4FD7901E4FEEDFB3395E0FA75F008EFD9
:1053B100A42408F582E5F03400F583E5822BF5821B
:1053C100E5833AF583E05924FF9291ED3395E0FAB4
:1053D10075F008EFA4241FF582E5F03402F583E5AA
:1053E100822BF582E5833AF583E05924FF9296ED0D
:1053F1003395E0FA75F008EFA42488F582E5F034DE
:1054010000F583E5822BF582E5833AF583E05924A3
:10541100FF9292ED3395E0FA75F008EFA4249FF521
:1054210082E5F03402F583E5822BF582E5833AF5D6
:1054310083E05924FF9295C294D294E925E0F90EB4
:10544100EE640860030253A70DED64086003025384
:10545100A3E4FD7901E4FEEDFB3395E0FA75F00874
:10546100EFA42408F582E5F03401F583E5822BF5FC
:1054710082E5833AF583E05924FF9291ED3395E07B
:10548100FA75F008EFA4241FF582E5F03403F583E3
:10549100E5822BF582E5833AF583E05924FF929664
:1054A100ED3395E0FA75F008EFA42488F582E5F074
:1054B1003401F583E5822BF582E5833AF583E059E2
:1054C10024FF9292ED3395E0FA75F008EFA4249F42
:1054D100F582E5F03403F583E5822BF582E5833A25
:1054E100F583E05924FF9295C294D294E925E0F91D
:1054F1000EEE640860030254580DED640860030267
:085501005454D293C293D293DB
:01550900227F
:105CDB00EFB410004003025D7E905CEBF828287354
:105CEB00025D1B025D1F025D25025D2B025D34020E
:105CFB005D38025D3E025D44025D4D025D51025D09
:105D0B0057025D5D025D66025D6A025D70025D7643
:105D1B00C2858002D285C286800AC285D286800463
:105D2B00D285D286C287C29022C2858002D285C21A
:105D3B0086800AC285D2868004D285D286D287C25B
:105D4B009022C2858002D285C286800AC285D28605
:105D5B008004D285D286C287D29022C2858002D29D
:105D6B0085C286800AC285D2868004D285D286D22D
:045D7B0087D2902219
:106961009005B27406F09005B2E0FF14F0EF602DCF
:10697100E49005B1F09005B1E0FFC3941050E71227
:106981005CDB9005B1E0FF1253A1C2977F587E02F4
:0D699100126CA1D2979005B1E004F080D8FF
:01699E0022D6
:103F450049060A0000000000000000004805FA01CB
:103F5500000000000000004806020000000000000C
:103F650000004805F201000000000000004805EAD5
:083F7500000000000000000044
:106C4B00ED3395E0FC74FA2DF58274053CF583EF7A
:026C5B00F02225
:106C5D00EF3395E0FE74FA2FF58274053EF583E06F
:026C6D00FF2204
:106BC6009005FA7401F0A3E4F0A3E4F0A3E4F0A3C3
:0C6BD600E4F0A3E4F0A3E4F0A3E4F02258
:106C6F00ED3395E0FC74F22DF58274053CF583EF5E
:026C7F00F02201
:106B1C00EFFD3395E0FC74EA2DF58274053CF583AA
:106B2C00E0FE74F22DF58274053CF583E0B50603A6
:066B3C007F00227F012210
:106C8100EF3395E0FE74F22FF58274053EF583E053
:026C9100FF22E0
:106B8A00EFFD3395E0FC74F22DF58274053CF58334
:0F6B9A00E0FE74EA2DF58274053CF583EEF022DF
:10666F0090060AE0FEC39408504FEFB4FF0C740B72
:10667F002EF582E43406F5838034EF703C90060AE1
:10668F00E0FFD3EF648094804021EFFB3395E0FA75
:10669F00740A2BF58274063AF583E0FE740B2BF522
:1066AF008274063AF583EEF01F80D790060BEDF05B
:0B66BF0090060AE004F07F01227F003B
:0166CA0022AD
:1067270090060AE070037FFE22E4FF90060BE0FE6E
:1067370090060AE014C36480F8EF6480985021EF54
:10674700FD3395E0FC740C2DF58274063CF583E06F
:10675700FB740B2DF58274063CF583EBF00F80D0AC
:10676700EFFD3395E0FC740B2DF58274063CF58341
:0A677700E4F090060AE014F0AF060B
:0167810022F5
:066CC30090060AE0FF222A
:103F7D004B04D0FF619D0B0200000000000060604B
:103F8D0004DB000000000000000000000000000045
:103F9D000000000000000000000000000000000014
:103FAD000000000000000000000000000000000004
:103FBD0000000000000000000000000000000000F4
:103FCD0000000000000000000000000000000000E4
:103FDD0000000000000000000000000000000000D4
:023FED000000D2
:1065500020A0077D017FFF12666F20A1077D027FCB
:10656000FF12666F20A2077D037FFF12666F20A3D4
:10657000077D047FFF12666F20B31D7F01126C5DE3
:10658000EF700E7D067FFF12666F7D017F01126C3A
:106590004B7D057FFF12666F7F01126C5DEF60110E
:1065A00030B30E7D077FFF12666F7D01E4FF126C32
:0265B0004B227C
:10348C00EF14B40B0040030237429034A475F003E0
:10349C00A4C58325F0C583730234C50235CC02352F
:1034AC00CF0235D202360002362E02365C02368A44
:1034BC000236B80236E50237127F0212691B7F040E
:1034CC00126CBD7BFF7A6179229005D27407F0A350
:1034DC007401F07D027F021241627BFF7A617929CF
:1034EC009005D27407F0A37401F07D027F0C124199
:1034FC00627BFF7A6179309005D27407F0A3740176
:10350C00F07D027F161241627BFF7A61793790055C
:10351C00D27407F0A37401F07D027F201241627B0C
:10352C00FF7A61793E9005D27407F0A37401F07DA7
:10353C000D7F021241627BFF7A6179459005D2744E
:10354C0007F0A37401F07D0D7F0C1241627BFF7AB2
:10355C0061794C9005D27407F0A37401F07D0D7F56
:10356C00161241627BFF7A6179539005D27407F091
:10357C00A37401F07D0D7F201241627BFF7A61798B
:10358C005A9005D27407F0A37401F07D187F0212D3
:10359C0041627BFF7A6179619005D27407F0A37464
:1035AC0001F07D187F0C12416212699F126BC67D6F
:1035BC00077FFE126C4B7D06E4FF126C4B02373D0D
:1035CC00026340026A6C7F0212691B7BFF7A61798D
:1035DC00309005D27407F0A37401F07D1C7F1C128F
:1035EC00416212699F9005BA74FEF0FBFDFF126AEE
:1035FC00F302373D7F0212691B7BFF7A61793790AA
:10360C0005D27407F0A37401F07D1C7F1C1241627B
:10361C0012699F9005BA74FEF0FBFDFF126AF3026B
:10362C00373D7F0212691B7BFF7A61793E9005D290
:10363C007407F0A37401F07D1C7F1C1241621269A7
:10364C009F9005BA74FEF0FBFDFF126AF302373D42
:10365C007F0212691B7BFF7A6179459005D2740752
:10366C00F0A37401F07D1C7F1C12416212699F90C3
:10367C0005BA74FEF0FBFDFF126AF302373D7F02C0
:10368C0012691B7BFF7A61794C9005D27407F0A309
:10369C007401F07D1C7F1C12416212699F9005BA67
:1036AC0074FEF0FBFDFF126AF302373D7F021269D4
:1036BC001B7BFF7A6179539005D27407F0A37401D8
:1036CC00F07D1C7F1C12416212699F9005BA74FE3A
:1036DC00F0FBFDFF126AF380587F0212691B7BFF1F
:1036EC007A61795A9005D27407F0A37401F07D1CAD
:1036FC007F1C12416212699F9005BA74FEF0FBFDAB
:10370C00FF126AF3802B7F0212691B7BFF7A6179AF
:10371C00619005D27407F0A37401F07D1C7F1C121C
:10372C00416212699F9005BA74FEF0FBFDFF126AAC
:07373C00F3E4FF126B8A2287
:075A70009005B1EDF0AC0759
:105A7700EAA3F0A3EBF0EF14B40B004003025B536F
:105A8700905A9575F003A4C58325F0C58373025A10
:105A9700B6025B1B025B29025B37025B37025B378F
:105AA700025B37025B37025B37025B37025B37907B
:105AB70005B1E024F9705B9005B2E0FFA3E0FD902B
:105AC70005B7740BF07B0A126BF9AD07AC06ED8CCA
:105AD700F012392C5B0700005B0700015B0700022F
:105AE7005B0701005B0701015B0701025B0702001F
:105AF7005B0702015B0703005B07030100005B19FB
:105B0700ECFFED540F25E025E02F2402FFE4FD1202
:105B17006C6F80309005B1E0FFA3E0FDA3E0FB02CE
:105B270057759005B1E0FFA3E0FDA3E0FB02589C89
:105B37009005B1E0FFA3E0FDA3E0FB9005BA740177
:0C5B4700F0126AF39005B1E0FF1266CB8B
:015B5300222F
:106A0B007F06126C5DEF602A9005B67401F0A374DB
:106A1B0004F0A374DBF0A37401F0A37405F0A3746A
:106A2B000BF07B017A0479D01264EC7D06E4FF1243
:036A3B006C4B227F
:105C34009005B1EEF0A3EFF07F07126C5DEFFD333A
:105C440095E0FC7E009005B2E0540F7802C333CE99
:105C540033CED8F9FBAA069005B1E02BFFE43AFE57
:105C6400EF6D7002EE6C606E126A0B7B017A047940
:105C7400D09005B1E075F00AA4FDA3E0540F75F0CF
:105C84000BA49005BBF01268879005B67401F0A3CD
:105C94007404F0A374DBF0A37401F0A37405F0A3FF
:105CA400740BF07B017A0479D01264887B017A0446
:105CB40079D07D051225A69005B1E0FCA3E0FDECAA
:105CC400FFED540F25E025E02FFF7D07126C4B7D7F
:075CD400067F01126C4B2258
:0267DA00AB070B
:1067DC00ECFFAE05EB14704CAD069005B7740BF0E6
:1067EC007B0A126BF9EF8EF012392C6823000068CB
:1067FC00230001682300026823010068230101685B
:10680C002301026823020068230201682303006845
:10681C0023030100006826025C34126A0B7D077F9B
:04682C00FE126C4BA1
:016830002245
:096CAC009005B1ECF0A3EDF0221B
:103FEF0045053B110A040A115305653B3B4040014F
:103FFF00053B0301053B0501053B020501015E057C
:10400F0040FE0CFFB0E0400FC61FC140C0005D5521
:10401F00D5141D005D555D559D003A12121239479A
:09402F00055EFFFFFFFFFFFF0724
:1039F000900661E0FDA3E090062EF0900663E0F9EA
:103A0000A3E0FAA3E090062FC9F0A3EAF0A3E9F03F
:103A1000900666E0900632F0900667E0900633F07C
:063A20007B017A02791F10
:0B3A260090062AEBF0A3EAF0A3E9F001
:103A3100900633E0FF900632E08FF0A4900635F057
:103A4100C3ED64809480400BED75F008123743AFED
:103A5100F0800DED75F008123743AFF0EF2408FF49
:103A6100900636EFF0C3ED64809480400AED75F066
:103A710008123743FF800BAF05EF75F0081237438B
:103A810014FF900637EFF0E4900634F0900635E02D
:103A9100FF900634E0FEC3EF6480F8EE6480984046
:103AA10003023C6E900632E0FFEE8FF0123743AE18
:103AB100F0900639EEF0FD3395E0FC90062EE0FB28
:103AC1003395E0FAEB2DFDEA3CFCC3648094805011
:103AD10003023C65ED9440EC648094804003023C19
:103AE10065900634E0FE8FF0123743FF900638F000
:103AF1003395E0FE900637E0FD3395E0FCED2FFFB6
:103B0100EC3EFEC3648094805003023BA0EF940816
:103B1100EE648094804003023BA0900639E0FF33BD
:103B210095E0FE90062EE0FD3395E0FCED2FFFECD5
:103B31003EFEEF7803C333CE33CED8F9FF90062A89
:103B4100E0FBA3E0FAA3E02FF9EA3EFA900638E0A1
:103B5100FF3395E0FE900637E0FD3395E0FCED2F55
:103B6100FFEC3EFEE92FF9EA3EFA123765F4FF90C9
:103B7100062FE0FBA3E0FAA3E0F9900634E0FD3361
:103B810095E08D82F58312377EFE900636E0FDEEDC
:103B9100A805088002C333D8FC5F60037F0122902F
:103BA1000638E0FF3395E0FE900637E0FD3395E0FF
:103BB100FCED2FFFEC3ECF2401CF3400FEC3648027
:103BC10094805003023C65EF9408EE648094804039
:103BD10003023C65900639E0FF3395E0FE90062E26
:103BE100E0FD3395E0FCED2FFFEC3EFEEF7803C3E3
:103BF10033CE33CED8F9FF90062AE0FBA3E0FAA337
:103C0100E02FF9EA3EFA900638E0FF3395E0FE90A6
:103C11000637E0FD3395E0FCED2FFFEC3ECF2401AC
:103C2100CF3400FEE92FF9EA3EFA123765F4FF902E
:103C3100062FE0FBA3E0FAA3E0F9900634E0FD33A0
:103C410095E08D82F58312377EFE900636E0FDC346
:103C510074089DFDEEA805088002C313D8FC5F60BF
:0F3C6100037F0122900634E004F0023A8D7F00C9
:013C70002231
:10564400900661EFF0A3EDF0A3EBF0A3EAF0A3E979
:10565400F0900668E0640270481239F0EF603C9004
:105664000661E0FDA3E090062EF0900663E0F9A346
:10567400E0FAA3E090062FC9F0A3EAF0A3E9F090C2
:105684000666E0900632F0900667E0900633F07B01
:10569400017A007908123A26EF70037F01227F0015
:1056A40022900668E07038900661E0FDA3E0900661
:1056B4002EF0900663E0F9A3E0FAA3E090062FC968
:1056C400F0A3EAF0A3E9F0900666E0900632F090C9
:1056D4000667E0900633F07B017A007908803E90FB
:1056E4000668E064017039900661E0FDA3E090066D
:1056F4002EF0900663E0F9A3E0FAA3E090062FC928
:10570400F0A3EAF0A3E9F0900666E0900632F09088
:105714000667E0900633F07B017A02791F023A268D
:10572400900668E0640370481239F0EF703C90060C
:1057340061E0FDA3E090062EF0900663E0F9A3E09B
:10574400FAA3E090062FC9F0A3EAF0A3E9F09006CB
:1057540066E0900632F0900667E0900633F07B0135
:105764007A007908123A26EF60047F0180027F00F4
:015774002212
:105FFB007B017A02791F90069EE0FD900693ECF0F0
:10600B0090020AE0FF900693E0FEC3EF6480F8EE87
:10601B00648098406D90020CE06480F8EE64809888
:10602B005060900209E0C36480F8ED6480984052A0
:10603B0090020BE06480F8ED6480985045900693D5
:10604B00E0FF3395E0FEEF7803C333CE33CED8F9C0
